:020000040000FA
:0400000029EF06F0EE
:0800080084EF02F0D9CFE5FFFF
:10001000E1CFD9FF00C0E5FF01C0E5FF02C0E5FF69
:1000200003C0E5FF04C0E5FF05C0E5FF06C0E5FF2E
:1000300007C0E5FF020EDBCF00F0030EDBCF01F0BF
:10004000040EDBCF02F0050EDBCF03F0060EDBCF94
:1000500004F0070EDBCF05F0080EDBCF06F0090E2B
:10006000DBCF07F0005000019A6F01509B6F0250E8
:100070009C6F03509D6F045000019E6F05509F6F51
:100080000650A06F0750A16F00019A510001A00314
:10009000F4CF01F0F3CF00F000500001A46F015045
:1000A000A56F00019A5100019E03F4CF01F0F3CF38
:1000B00000F000500001A26F0150A36F00019D519C
:1000C00000019E03F3CF00F00001A551002600506F
:1000D000A56F00019C5100019F03F3CF00F00001C8
:1000E000A55100260050A56F00019C5100019E0300
:1000F000F4CF01F0F3CF00F00001A4510026A55188
:1001000001220050A46F0150A56F00019B51000116
:100110009F03F4CF01F0F3CF00F00001A4510026BB
:10012000A55101220050A46F0150A56F00019B5101
:100130000001A003F3CF00F000500001A96F0001FF
:100140009B5100019E03F4CF01F0F3CF00F000506B
:100150000001A76F0150A86F00019A510001A1038F
:10016000F3CF00F000500001AD6F00019A51000183
:100170009F03F4CF01F0F3CF00F000500001AB6F0C
:100180000150AC6F0001A66B0001AA6B0001A651E3
:100190000001A225006E0001A7510001A321016EFC
:1001A0000001A8510001A421026E0001A951000123
:1001B000A521036E0050A26F0150A36F0250A46FDF
:1001C0000350A56F0001AA510001A225006E000195
:1001D000AB510001A321016E0001AC510001A4212B
:1001E000026E0001AD510001A521036E03C0E9FFBD
:1001F00002C0F4FF01C0F3FF0050E4CF07F0E4CFEA
:1002000006F0E4CF05F0E4CF04F0E4CF03F0E4CF50
:1002100002F0E4CF01F0E4CF00F0E4CFD9FF120008
:10022000D9CFE5FFE1CFD9FF00C0E5FF01C0E5FF71
:1002300002C0E5FF03C0E5FF04C0E5FF05C0E5FF20
:1002400006C0E5FF07C0E5FF08C0E5FF09C0E5FF00
:100250000AC0E5FF0BC0E5FF0CC0E5FF0DC0E5FFE0
:100260000EC0E5FF0FC0E5FF020EDBCF00F0030E6E
:10027000DBCF01F0040EDBCF02F0050EDBCF03F085
:1002800096C004F097C005F098C006F099C007F03A
:1002900004500001965D086E055000019759096EE3
:1002A0000650000198590A6E0750000199590B6ECB
:1002B00008500C6E09500D6E0A500E6E0B500F6EEA
:1002C000D8800FAED8901CE30B50E56E0A50E56E57
:1002D0000950E56E0850E56EFF0EE56EFF0EE56E07
:1002E000FF0EE56EFF0EE56E06EC00F00C6EF3CF30
:1002F0000DF0F4CF0EF0E9CF0FF0080EE12608D094
:1003000008C00CF009C00DF00AC00EF00BC00FF0D1
:1003100003500F5C08E102500E5C05E101500D5CDA
:1003200002E100500C5CD8A0B3D7E4CF0FF0E4CFCB
:100330000EF0E4CF0DF0E4CF0CF0E4CF0BF0E4CFFF
:100340000AF0E4CF09F0E4CF08F0E4CF07F0E4CFFF
:1003500006F0E4CF05F0E4CF04F0E4CF03F0E4CFFF
:1003600002F0E4CF01F0E4CF00F0E4CFD9FF1200B7
:10037000D350FC0BD36ED3508F0B6009D36E0001AA
:10038000966B0001976B0001986B0001996B00015F
:10039000B06B0001B16B0001B26B0001B36B0001E7
:1003A000B46B0001B56B87EC05F0000EE56E0C0E2A
:1003B000E56E7C0E13EC03F0E652E65217EC06F005
:1003C0007CEC04F0000EE56E000EE56E030EE56EAB
:1003D000E80EE56E10EC01F0040EE126000EE56E6D
:1003E000000EE56E9DEC04F0E652E6528B8A05ECB9
:1003F00006F00001B76F05EC06F0006E005000013A
:10040000B71906E005EC06F00001B76FC3EC03F086
:10041000FF0EE56E360EE56E9DEC04F0E652E652F8
:10042000000EE56E000EE56E000EE56EC80EE56E80
:1004300010EC01F0040EE126000EE56E360EE56EBE
:100440009DEC04F0E652E652000EE56E000EE56EFD
:10045000000EE56EC80EE56E10EC01F0040EE1260C
:10046000CAD71200D9CFE5FFE1CFD9FF00C0E5FF21
:1004700001C0E5FF02C0E5FF020EDBCF00F0030E76
:10048000DBCF01F000AC06D0020EE56EECEC03F021
:10049000E65205D0010EE56EECEC03F0E6520138B1
:1004A000E8441F0B026E0250E56E38EC04F0E65291
:1004B0003F0E00160050E56E14EC04F0E65233ECEB
:1004C00006F033EC06F0026E0050E56E14EC04F01A
:1004D000E652070E0116010E006E015005E0E86CB1
:1004E000D8900036010FFDE3005002120250E56E75
:1004F0005BEC04F0E652E4CF02F0E4CF01F0E4CF8D
:1005000000F0E4CFD9FF1200D8CFE5FFE0CFE5FF40
:10051000E56EF3CFE5FFF4CFE5FFE9CFE5FFEACFE6
:10052000E5FFFACFE5FFFBCFE5FFD9CFE5FFE1CF50
:10053000D9FF00C0E5FF9EA20ED0180ECB6E9E9292
:100540000001962B08E30001972B05E30001983F7B
:1005500002D00001992B43EC06F0006E005006E03B
:10056000DEEC05F0006E00503BEC06F0E4CF00F04E
:10057000E4CFD9FFE4CFFBFFE4CFFAFFE4CFEAFFFB
:10058000E4CFE9FFE4CFF4FFE4CFF3FFE450E4CF9E
:10059000E0FFE4CFD8FF1000D9CFE5FFE1CFD9FFCE
:1005A00000C0E5FF01C0E5FF02C0E5FF030EE56EF8
:1005B000ECEC03F0E652006A0050E56E38EC04F013
:1005C000E652000EE56E14EC04F0E652000EE56E05
:1005D000B6EC05F0E652000EE56E13EC05F0E652BF
:1005E000010EE56E30EC05F0E652400E016EA1EC16
:1005F00005F0000000000150026E0204016E01507F
:10060000F6E1002A080E005CD7E3010EE56EECEC83
:1006100003F0E652E4CF02F0E4CF01F0E4CF00F0C3
:10062000E4CFD9FF1200D9CFE5FFE1CFD9FF00C059
:10063000E5FF01C0E5FF02C0E5FF006E020EDBCF63
:1006400001F0030EDBCF02F0AC6AAB6A00B0AC88FD
:1006500000A202D0AC8CAB8C00A401D0AC8E00A662
:1006600002D0AB8801D0AB8A00A803D0AC84B88696
:1006700001D0B8969E9800AC02D09D8A01D09D9A78
:100680009E9A00AE02D09D8801D09D980250B06E17
:100690000150AF6E948C948EAC8AAB8EE4CF02F096
:1006A000E4CF01F0E4CF00F0E4CFD9FF1200D9CFBE
:1006B000E5FFE1CFD9FF00C0E5FF000EE56E000EBB
:1006C000E56E000EE56E010EE56E10EC01F0040E15
:1006D000E126010EE56EF6EC04F0E652000EE56E42
:1006E000000EE56E000EE56E010EE56E10EC01F0F9
:1006F000040EE126000EE56EF6EC04F0E652CAECBC
:1007000005F0006E00A80DD0000EE56E000EE56E3F
:10071000000EE56E010EE56E10EC01F0040EE12610
:10072000EED7E4CF00F0E4CFD9FF1200D9CFE5FF38
:10073000E1CFD9FF00C0E5FF020EDBCF00F0000ED5
:10074000E56EBCEC04F0E652000EE56ED9EC04F068
:10075000E652000EE56E13EC05F0E652000EE56E73
:1007600030EC05F0E652010E00163E0E001200506D
:10077000E56EB6EC05F0E652A1EC05F0E4CF00F032
:10078000E4CFD9FF1200D9CFE5FFE1CFD9FF010EA9
:10079000E56E6AEC05F0E652000EE56E000EE56EC1
:1007A000010EE56EF40EE56E10EC01F0040EE1268C
:1007B000000EE56E6AEC05F0E652000EE56E000EE6
:1007C000E56E010EE56EF40EE56E10EC01F0040E20
:1007D000E126E4CFD9FF1200D9CFE5FFE1CFD9FF61
:1007E00000C0E5FF020EDBCF00F000A006D0000E37
:1007F000E56EBCEC04F0E65205D0010EE56EBCECF3
:1008000004F0E65200A206D0000EE56ED9EC04F02A
:10081000E65205D0010EE56ED9EC04F0E652E4CFC5
:1008200000F0E4CFD9FF1200D9CFE5FFE1CFD9FF27
:1008300000C0E5FF020EDBCF00F0F2EC05F0000E89
:10084000E56E30EC05F0E652000EE56E13EC05F0B7
:10085000E6523F0E0016008C0050E56EB6EC05F037
:10086000E652A1EC05F0E4CF00F0E4CFD9FF12008E
:10087000D9CFE5FFE1CFD9FF00C0E5FF020EDBCF06
:1008800000F0F2EC05F0000EE56E30EC05F0E652FB
:10089000000EE56E13EC05F0E652B80E00120050A3
:1008A000E56EB6EC05F0E652A1EC05F0E4CF00F001
:1008B000E4CFD9FF1200D9CFE5FFE1CFD9FF00C0C7
:1008C000E5FF020EDBCF00F0F2EC05F0010EE56E65
:1008D00030EC05F0E652000EE56E13EC05F0E65242
:1008E0000050E56EB6EC05F0E652A1EC05F0E4CF61
:1008F00000F0E4CFD9FF1200D9CFE5FFE1CFD9FF57
:10090000010EE56E6AEC05F0E6520001B96B010ECE
:10091000E56EBCEC04F0E652010EE56ED9EC04F095
:10092000E65257EC03F0010EE56E96EC03F0E6524A
:10093000CCEC02F0E4CFD9FF1200D9CFE5FFE1CF34
:10094000D9FF00C0E5FF01C0E5FF020EDBCF00F0DC
:10095000030EDBCF01F03F0E001600500116956A22
:1009600001C08CFF898E899E8C6AE4CF01F0E4CFB0
:1009700000F0E4CFD9FF1200D9CFE5FFE1CFD9FFD6
:1009800000C0E5FF020EDBCF00F0956A005005E0E5
:100990000001B98BB9C08CFF04D00001B99BB9C06C
:1009A0008CFF898C899C8C6AE4CF00F0E4CFD9FF5E
:1009B0001200D9CFE5FFE1CFD9FF00C0E5FF020E5D
:1009C000DBCF00F0956A005005E00001B989B9C09D
:1009D0008CFF04D00001B999B9C08CFF898C899C27
:1009E0008C6AE4CF00F0E4CFD9FF1200D9CFE5FF45
:1009F000E1CFD9FF00C0E5FF020EDBCF00F0956A22
:100A0000005005E00001B987B9C08CFF04D0000197
:100A1000B997B9C08CFF898C899C8C6AE4CF00F0AF
:100A2000E4CFD9FF1200D9CFE5FFE1CFD9FF00C055
:100A3000E5FF020EDBCF00F0956A005005E00001F3
:100A4000B985B9C08CFF04D00001B995B9C08CFF3D
:100A5000898C899C8C6AE4CF00F0E4CFD9FF120026
:100A6000D9CFE5FFE1CFD9FF00C0E5FF020EDBCF14
:100A700000F0956A005005E00001B983B9C08CFF11
:100A800004D00001B993B9C08CFF898C899C8C6A11
:100A9000E4CF00F0E4CFD9FF1200D9CFE5FFE1CFDA
:100AA000D9FF00C0E5FF020EDBCF00F0956A0050D1
:100AB00005E00001B981B9C08CFF04D00001B991F3
:100AC000B9C08CFF898C899C8C6AE4CF00F0E4CF9C
:100AD000D9FF1200D9CFE5FFE1CFD9FF00C0E5FF74
:100AE000020EDBCF00F0956A005005E00001B98FDF
:100AF000B9C08CFF04D00001B99FB9C08CFF898CAC
:100B0000899C8C6AE4CF00F0E4CFD9FF1200D9CFE2
:100B1000E5FFE1CFD9FFCA80CA92CA86CA98CA9AAD
:100B2000CA8C9F829E82CA849D82B18EB192B18806
:100B3000B188A292B180A182F28CF28EE4CFD9FF6B
:100B40001200D9CFE5FFE1CFD9FF010EE56E4DECE4
:100B500005F0E65200000000000EE56E4DEC05F0D9
:100B6000E65200000000E4CFD9FF1200D9CFE5FF24
:100B7000E1CFD9FF00C0E5FF020EDBCF00F0956AA0
:100B800000C08CFF8B848B948C6AE4CF00F0E4CFA0
:100B9000D9FF1200D9CFE5FFE1CFD9FF000EE56EF6
:100BA000000EE56E000EE56E640EE56E10EC01F0D1
:100BB000040EE126010EE4CFD9FF1200F00E000171
:100BC000BA15BA6FABAC04D0BA91ABA001D0BA8160
:100BD000ABA402D00001BA85ABA202D00001BA8753
:100BE000AE501200D9CFE5FFE1CFD9FF00C0E5FF3D
:100BF000CAEC05F0006E00AE03D000000000F8D78C
:100C0000E4CF00F0E4CFD9FF1200D9CFE5FFE1CF68
:100C1000D9FF00C0E5FFFF0E956E899883CF00F0E5
:100C200089880050E4CF00F0E4CFD9FF1200D9CF7B
:100C3000E5FFE1CFD9FF956A92988988929E899EB7
:100C4000929C899C94948B94949A8B9AE4CFD9FF2C
:100C5000120017EEFFF027EEFFF0F86AA68EA69CB2
:100C6000B8EC01F0FFD7D9CFE5FFE1CFD9FF010EF6
:100C7000E4CFD9FF1200ACAC04D0AC900001BAB301
:0E0C8000AC80AD6E1200000E9EBA010F120085
:020000040030CA
:0300010008191EBD
:020005008180F8
:00000001FF
