:020000040000FA
:1000000071EF16F0C96E120086EF09F0ACA2FED7B0
:10001000AD6E12001CEF16F0A3EF10F0D9CFE5FF84
:10002000E1CFD9FF00C0E5FF01C0E5FF02C0E5FF59
:1000300003C0E5FF04C0E5FF05C0E5FF06C0E5FF1E
:1000400007C0E5FF08C0E5FF09C0E5FF0AC0E5FFFE
:100050000BC0E5FF0CC0E5FF0DC0E5FF0EC0E5FFDE
:100060000FC0E5FF10C0E5FF11C0E5FF12C0E5FFBE
:1000700013C0E5FF14C0E5FF15C0E5FF16C0E5FF9E
:1000800017C0E5FF18C0E5FF19C0E5FF1AC0E5FF7E
:100090001BC0E5FF1CC0E5FF1DC0E5FF1EC0E5FF5E
:1000A000020EDBCF00F0030EDBCF01F0040EDBCF3E
:1000B00002F0050EDBCF03F0060EDBCF04F0070ED7
:1000C000DBCF05F0080EDBCF06F0090EDBCF07F023
:1000D0000A0EDBCF08F0096A0A6A02C00DF00D5063
:1000E000800A0DE102500F01716F0150706F0050D6
:1000F0006F6F0F0E016E6F0E006E800E026E03C0EA
:10010000E9FF04C0F3FF05502EEC16F00B6E0B5008
:10011000D8B4CAEF03F00B50250A02E0B1EF03F0A8
:100120000C6A0D6A0E6A0F6A106A0A0E116E126A64
:10013000136A146A200E156E1668176A2B0E186E55
:10014000032A02E3044A052A03C0E9FF04C0F3FFBF
:1001500005502EEC16F0196E250A13E11950E56EC4
:100160000250E56E0150E56E0050E56EDFEC0DF0DB
:10017000040EE126094A0A2A032A02E3044A052A50
:10018000BED71950300A06E1300E156E032A02E37D
:10019000044A052A03C0E9FF04C0F3FF05502EEC12
:1001A00016F02D0A06E1010E146E032A02E3044A3A
:1001B000052A03C0E9FF04C0F3FF05502EEC16F03A
:1001C000200A08E1010E176E200E186E032A02E3C2
:1001D000044A052A03C0E9FF04C0F3FF05502EECD2
:1001E00016F02B0A06E1010E176E032A02E3044AF9
:1001F000052A03C0E9FF04C0F3FF05502EEC16F0FA
:10020000196E800F4F0F2DE31950800F460F29E212
:1002100003C019F004C01AF005C01BF019C0E9FFB3
:100220001AC0F3FF1B502EEC16F01C6E800F500FFF
:1002300012E31C50800F460F0EE213500A0DF3CF4D
:100240001DF01D501C26D00E1C24136E192A02E32B
:100250001A4A1B2AE3D719C003F01AC004F01BC0C6
:1002600005F003C0E9FF04C0F3FF05502EEC16F0C3
:100270002E0A2EE1032A02E3044A052A166A03C065
:1002800019F004C01AF005C01BF019C0E9FF1AC02C
:10029000F3FF1B502EEC16F01C6E800F500F12E374
:1002A0001C50800F460F0EE216500A0DF3CF1DF0C2
:1002B0001D501C26D00E1C24166E192A02E31A4A61
:1002C0001B2AE3D719C003F01AC004F01BC005F0C5
:1002D00003C0E9FF04C0F3FF05502EEC16F0196EC1
:1002E0006C0A07E1010E0C6E032A02E3044A052A98
:1002F00009D01950680A06E1010E0E6E032A02E3C6
:10030000044A052A03C0E9FF04C0F3FF05502EECA0
:1003100016F0750A06E1010E106E032A02E3044A84
:10032000052A03C0E9FF04C0F3FF05502EEC16F0C8
:10033000196E730A05E1010E0D6E200E156E3FD089
:100340001950780A03E1100E116E39D01950580A6D
:1003500005E1100E116E010E126E31D01950630AB4
:1003600002E1116A2CD019506F0A03E1080E116ED8
:1003700026D01950660A03E1010E0F6E20D01950E5
:10038000640A1DE01950690A1AE0105005E0FF0EDA
:1003900003260422052213D01950E56E0250E56EA3
:1003A0000150E56E0050E56EDFEC0DF0040EE12625
:1003B000094A0A2A032A02E3044A052AA0D60D5054
:1003C00021E00650030F0D6E000E0720196E000E7F
:1003D00008201A6E0DC006F019C007F01AC008F008
:1003E000FD0E0D26FF0E19221A220DC0E9FF19C0BD
:1003F000F3FF1A5000EC15F00D6EF3CF19F0F4CFA7
:100400001AF000D10F500DE0000E1A6E080E196E92
:100410001C0E0D6E040E0626000E0722082216681A
:10042000F1D016680C5023E00650040F0C6E000E3D
:1004300007200F6E000E08201B6E0CC006F00FC0C8
:1004400007F01BC008F0FC0E0C26FF0E0F221B222B
:100450000CC0E9FF0FC0F3FF1B50C1EC13F00C6E92
:10046000F3CF0FF0F4CF1BF0E9CF1CF06AD00E50A1
:1004700032E00650020F0E6E000E07201D6E000EB9
:1004800008201E6E0EC006F01DC007F01EC008F04A
:10049000FE0E0E26FF0E1D221E220EC0E9FF1DC0FD
:1004A000F3FF1E507CEC15F00E6E0EC00CF0E86AE7
:1004B0000EBEFF0E0F6E1B6E1C6E11500A0A03E17A
:1004C0001050D8B43ED00C500E6E0EC00CF00F6A17
:1004D0001B6A1C6A36D00650020F0E6E000E0720F3
:1004E0001D6E000E08201E6E0EC006F01DC007F027
:1004F0001EC008F0FE0E0E26FF0E1D221E220EC08C
:10050000E9FF1DC0F3FF1E507CEC15F00E6EF3CF1B
:100510001DF00EC00CF01DC00FF0E86A1DBEFF0EEE
:100520001B6E1C6E11500A0A02E110500AE00C50BA
:100530000E6E0F501D6E0EC00CF01DC00FF01B6A2A
:100540001C6A0F0E196E320E0D6E800E1A6E11504F
:10055000D8B440D0105013E01150E56E0F0EE56E88
:10056000320EE56E1C50E56E1B50E56E0F50E56EC9
:100570000C50E56EAAEC08F0070EE12612D01150DF
:10058000E56E0F0EE56E320EE56E1C50E56E1B50EB
:10059000E56E0F50E56E0C50E56EEAEC0EF0070EBE
:1005A000E12617502FE00DC0E9FF19C0F3FF1A50E4
:1005B0002EEC16F02D0A26E0FF0E0D2619221A2227
:1005C00018C0E5FF0DC0E9FF19C0F3FF1A505CEC3D
:1005D00016F018D00CC0E5FF0DC0E9FF19C0F3FFFD
:1005E0001A505CEC16F00D50010F0C6E000E192025
:1005F0000E6E000E1A20E56A0CC0E9FF0EC0F3FF74
:100600005CEC16F00DC00CF019C00EF01AC00FF023
:1006100013C010F0105010E00CC0E9FF0EC0F3FF43
:100620000F502EEC16F0176E175006E00C2A02E35E
:100630000E4A0F2A1006EED710C013F014501EE118
:1006400009C00CF00AC00EF010C00FF00F5010E0FF
:100650001550E56E0250E56E0150E56E0050E56EF6
:10066000DFEC0DF0040EE1260C4A0E2A0F06EED741
:100670000CC009F00EC00AF00FC013F016C00CF049
:100680000DC00DF019C00EF01AC00FF009C010F027
:100690000AC015F00DC0E9FF0EC0F3FF0F502EEC9D
:1006A00016F0166E1650D8B43ED00CC016F0176A6D
:1006B000161E171E1650171005E00CC016F00C067B
:1006C000165031E00DC0E9FF0EC0F3FF0F502EECC5
:1006D00016F0116E125010E01150E56E65EC15F039
:1006E000166EE652165004E01150166E169A02D09D
:1006F00011C016F016C011F01150E56E0250E56EF3
:100700000150E56E0050E56EDFEC0DF0040EE126C1
:100710000D2A02E30E4A0F2A104A152A1350D8B4A4
:10072000B9D71306B7D710C009F015C00AF0145096
:100730002BE010C00CF015C00DF013C00EF00E50E1
:100740001FE0200EE56E0250E56E0150E56E005090
:10075000E56EDFEC0DF0040EE1260C4A0D2A0E06C4
:10076000EED70B50E56E0250E56E0150E56E00507D
:10077000E56EDFEC0DF0040EE126094A0A2A04D0EA
:100780000CC009F00DC00AF0032A02E3044A052A4E
:100790007FEF00F00AC0F3FF0950E4CF1EF0E4CF72
:1007A0001DF0E4CF1CF0E4CF1BF0E4CF1AF0E4CF4F
:1007B00019F0E4CF18F0E4CF17F0E4CF16F0E4CF4F
:1007C00015F0E4CF14F0E4CF13F0E4CF12F0E4CF4F
:1007D00011F0E4CF10F0E4CF0FF0E4CF0EF0E4CF4F
:1007E0000DF0E4CF0CF0E4CF0BF0E4CF0AF0E4CF4F
:1007F00009F0E4CF08F0E4CF07F0E4CF06F0E4CF4F
:1008000005F0E4CF04F0E4CF03F0E4CF02F0E4CF4E
:1008100001F0E4CF00F0E4CFD9FF12003C4E4F20AE
:10082000464C4F41543E0000D350FC0BD36ED35086
:100830008F0B7009D36ED18004000F01576B0F012D
:10084000586B0F01596B0F015A6B0F01726B0F013F
:10085000736B0F01746B0F01756B0F017E6BD08E84
:10086000C9EC14F09F9A9F9892EC15F0000EE56E7B
:10087000000EE56E030EE56EE80EE56EDFEC0AF0A5
:10088000040EE126000E026E140E016E380E006E8C
:100890000250E56E0150E56E0050E56E09EC12F075
:1008A000030EE126B00EE56E030EE56E060EE56E54
:1008B000000EE56ECBEC11F0040EE126A7EC15F06E
:1008C00035EC15F0006E005023E1010EE56E8FEC63
:1008D00014F0E652000EE56E000EE56E030EE56EB6
:1008E000E80EE56EDFEC0AF0040EE126000EE56E80
:1008F0008FEC14F0E652000EE56E000EE56E030E6E
:10090000E56EE80EE56EDFEC0AF0040EE126D8D7BE
:10091000010EE56E8FEC14F0E6528B8A0AEC16F0AD
:100920000801006F0F01516B0F01526B0F01536BE8
:100930000F01546B0F01556B0F01566B080E016EC2
:10094000010E006E800E026E0250E56E0150E56EE3
:100950000050E56EAAEC0FF0006E030EE126005089
:10096000D8B4F8D0080101510A0A05E00801015184
:100970002E0A01E0C4D00F017E6B000E016EE40E62
:10098000006E800E026E000E046EF90E036E800E75
:10099000056E0550E56E0450E56E0350E56E02509D
:1009A000E56E0150E56E0050E56E36EC0AF0006E23
:1009B000060EE1260050D8B49ED004000001F95183
:1009C000006E0050670A01E13CD00050730A05E058
:1009D00000507A0A01E169D08AD0006A510E0024E1
:1009E000016E026A0F0E02220028036EF90E032424
:1009F000046E056A000E052204C0E9FF05C0EAFF87
:100A0000EFCF04F001C0E9FF02C0EAFF04C0EFFF2E
:100A100003C000F0060E005CE1E3210E8CEC16F042
:100A2000000E026E140E016E600E006E0250E56E36
:100A30000150E56E0050E56E09EC12F0030EE12660
:100A400089D002C800F0016A000E046E140E036E15
:100A5000640E026E0F0E066E3E0E056E800E076E61
:100A60000150E56E0050E56E0450E56E0350E56EF2
:100A70000250E56E0750E56E0650E56E0550E56ED6
:100A800055EC0DF0080EE1260F0E016E3E0E006EC5
:100A9000800E026E0250E56E0150E56E0050E56E6C
:100AA00009EC12F0030EE12655D07A0E8CEC16F00C
:100AB000000E026E140E016E600E006E0250E56EA6
:100AC0000150E56E0050E56E09EC12F0030EE126D0
:100AD000000EE56E000EE56E000EE56E640EE56E2E
:100AE000DFEC0AF0040EE12684EC16F033D03F0E62
:100AF0008CEC16F02FD03F0E8CEC16F02BD0150E90
:100B00000F017E5D10E2E40E0F017E25006E016A8A
:100B1000000E012200C0E9FF01C0EAFF01C8EFFF9B
:100B20000F017E2B17D00001F86B0F017E6B2B0E8F
:100B30008CEC16F0000E026E140E016E600E006E4C
:100B40000250E56E0150E56E0050E56E09EC12F0C2
:100B5000030EE126080102510801001901E1EED659
:100B600002C800F89DEC12F0E9D61200D9CFE5FFDB
:100B7000E1CFD9FF00C0E5FF01C0E5FF02C0E5FFFE
:100B800003C0E5FF04C0E5FF05C0E5FF06C0E5FFC3
:100B900007C0E5FF020EDBCF00F0030EDBCF01F054
:100BA000040EDBCF02F0050EDBCF03F0060EDBCF29
:100BB00004F0070EDBCF05F0080EDBCF06F0090EC0
:100BC000DBCF07F000500F015B6F01505C6F0250EC
:100BD0005D6F03505E6F04500F015F6F0550606FD3
:100BE0000650616F0750626F0F015B510F01610387
:100BF000F4CF01F0F3CF00F000500F01656F01500A
:100C0000666F0F015B510F015F03F4CF01F0F3CF6B
:100C100000F000500F01636F0150646F0F015E51CF
:100C20000F015F03F3CF00F00F0166510026005063
:100C3000666F0F015D510F016003F3CF00F00F01EC
:100C4000665100260050666F0F015D510F015F0372
:100C5000F4CF01F0F3CF00F00F016551002666518B
:100C600001220050656F0150666F0F015C510F014A
:100C70006003F4CF01F0F3CF00F00F0165510026BF
:100C8000665101220050656F0150666F0F015C5183
:100C90000F016103F3CF00F000500F016A6F0F01E5
:100CA0005C510F015F03F4CF01F0F3CF00F000506F
:100CB0000F01686F0150696F0F015B510F016203F3
:100CC000F3CF00F000500F016E6F0F015B510F0169
:100CD0006003F4CF01F0F3CF00F000500F016C6F10
:100CE00001506D6F0F01676B0F016B6B0F01675147
:100CF0000F016325006E0F0168510F016421016E21
:100D00000F0169510F016521026E0F016A510F0138
:100D10006621036E0050636F0150646F0250656F6F
:100D20000350666F0F016B510F016325006E0F01B9
:100D30006C510F016421016E0F016D510F0165218E
:100D4000026E0F016E510F016621036E03C0E9FFB1
:100D500002C0F4FF01C0F3FF0050E4CF07F0E4CF7E
:100D600006F0E4CF05F0E4CF04F0E4CF03F0E4CFE5
:100D700002F0E4CF01F0E4CF00F0E4CFD9FF12009D
:100D800000002110422063308440A550C660E77007
:100D9000088129914AA16BB18CC1ADD1CEE1EFF1AF
:100DA0003112100273325222B5529442F772D66257
:100DB000399318837BB35AA3BDD39CC3FFF3DEE3FF
:100DC0006224433420040114E664C774A4448554A7
:100DD0006AA54BB528850995EEE5CFF5ACC58DD54F
:100DE0005336722611163006D776F6669556B446F7
:100DF0005BB77AA719973887DFF7FEE79DD7BCC79F
:100E0000C448E5588668A778400861180228233846
:100E1000CCC9EDD98EE9AFF9488969990AA92BB9EE
:100E2000F55AD44AB77A966A711A500A333A122A96
:100E3000FDDBDCCBBFFB9EEB799B588B3BBB1AAB3E
:100E4000A66C877CE44CC55C222C033C600C411CE6
:100E5000AEED8FFDECCDCDDD2AAD0BBD688D499D8E
:100E6000977EB66ED55EF44E133E322E511E700E36
:100E70009FFFBEEFDDDFFCCF1BBF3AAF599F788FDE
:100E80008891A981CAB1EBA10CD12DC14EF16FE1BE
:100E90008010A100C230E3200450254046706760F6
:100EA000B9839893FBA3DAB33DC31CD37FE35EF30E
:100EB000B1029012F322D232354214527762567246
:100EC000EAB5CBA5A89589856EF54FE52CD50DC55E
:100ED000E234C324A0148104667447642454054496
:100EE000DBA7FAB79987B8975FE77EF71DC73CD7AE
:100EF000D326F2369106B0165766767615463456E6
:100F00004CD96DC90EF92FE9C899E9898AB9ABA9FD
:100F10004458654806782768C018E1088238A32835
:100F20007DCB5CDB3FEB1EFBF98BD89BBBAB9ABB4D
:100F3000754A545A376A167AF10AD01AB32A923A85
:100F40002EFD0FED6CDD4DCDAABD8BADE89DC98D9D
:100F5000267C076C645C454CA23C832CE01CC10CD5
:100F60001FEF3EFF5DCF7CDF9BAFBABFD98FF89FED
:100F7000176E367E554E745E932EB23ED10EF01E25
:100F8000D9CFE5FFE1CFD9FF00C0E5FF01C0E5FF04
:100F900002C0E5FF03C0E5FF04C0E5FF05C0E5FFB3
:100FA00006C0E5FF07C0E5FF08C0E5FF09C0E5FF93
:100FB0000AC0E5FF0BC0E5FF0CC0E5FF020EDBCF6A
:100FC00000F0030EDBCF01F0040EDBCF02F0050EC4
:100FD000DBCF03F0060EDBCF04F0070EDBCF05F00E
:100FE000300E0F01206F310E0F01216F320E0F01F5
:100FF000226F330E0F01236F340E0F01246F350E55
:101000000F01256F360E0F01266F370E0F01276F68
:10101000380E0F01286F390E0F01296F610E0F0175
:101020002A6F620E0F012B6F630E0F012C6F640E7F
:101030000F012D6F650E0F012E6F660E0F012F6FC2
:101040000F01306B00C0E9FF01C0F3FF02502EEC2E
:1010500016F0066E0650D8B460D00F0E086E200E43
:10106000076E800E096E0650E56E0950E56E085059
:10107000E56E0750E56E3FEC11F0066EF3CF07F01A
:10108000F4CF08F0040EE126200E065E0F0E075A7C
:101090000650100DF3CF06F00F0E086E200E076EEF
:1010A000800E096E0050010F0A6E000E01200B6EBB
:1010B000000E02200C6E0AC0E9FF0BC0F3FF0C50BB
:1010C0002EEC16F00A6E0A50E56E0950E56E0850D7
:1010D000E56E0750E56E3FEC11F0076EF3CF08F0B8
:1010E000F4CF09F0040EE126200E075E0F0E085A19
:1010F0000750062606C0E5FF03C0E9FF04C0F3FF62
:1011000005505CEC16F0020E0026000E01220222B1
:10111000032A98E3044A052A95D7E4CF0CF0E4CFDC
:101120000BF0E4CF0AF0E4CF09F0E4CF08F0E4CF0D
:1011300007F0E4CF06F0E4CF05F0E4CF04F0E4CF0D
:1011400003F0E4CF02F0E4CF01F0E4CF00F0E4CF0D
:10115000D9FF1200D9CFE5FFE1CFD9FF00C0E5FFED
:1011600001C0E5FF02C0E5FF03C0E5FF04C0E5FFE5
:1011700005C0E5FF06C0E5FF07C0E5FF08C0E5FFC5
:1011800009C0E5FF0AC0E5FF0BC0E5FF0CC0E5FFA5
:101190000DC0E5FF0EC0E5FF0FC0E5FF020EDBCF7F
:1011A00000F0030EDBCF01F0040EDBCF02F0050EE2
:1011B000DBCF03F0060EDBCF04F0070EDBCF05F02C
:1011C000080EDBCF06F0200E076E086A06C009F095
:1011D0000A6A0B6A0C6AE56AE56AE56A0950E56E17
:1011E0000350E56E0250E56E0150E56E0050E56E6D
:1011F0002CEC0CF00D6E080EE126300E0D263A0E8A
:101200000D5C05E30D500E6E270E0E240D6EFF0EC5
:1012100007260822000E07240E6E0F0E08200F6E00
:101220000EC0E9FF0FC0EAFF0DC0EFFF0C50E56EE6
:101230000B50E56E0A50E56E0950E56E0350E56E01
:101240000250E56E0150E56E0050E56EC9EC0CF001
:10125000006EF3CF01F0F4CF02F0E9CF03F0080EF7
:10126000E1260050011002100310D8A4AFD707C028
:1012700000F008C001F004C002F005C003F000C097
:1012800004F001C005F0004A012A000E04260F0EEA
:10129000052204C0E9FF05C0EAFFEFCF04F002C059
:1012A000E9FF03C0EAFF04C0EFFF024A032A000E71
:1012B000015C02E1200E005CE2E302C0E9FF03C032
:1012C000EAFF000EEF6AE4CF0FF0E4CF0EF0E4CFB8
:1012D0000DF0E4CF0CF0E4CF0BF0E4CF0AF0E4CF54
:1012E00009F0E4CF08F0E4CF07F0E4CF06F0E4CF54
:1012F00005F0E4CF04F0E4CF03F0E4CF02F0E4CF54
:1013000001F0E4CF00F0E4CFD9FF1200D8CFE5FF21
:10131000E0CFE5FFE56EF3CFE5FFF4CFE5FFE9CFE2
:10132000E5FFEACFE5FFFACFE5FFFBCFE5FFD9CF39
:10133000E5FFE1CFD9FF00C0E5FF01C0E5FFF2A462
:1013400063D0FD0ED76ED66AF2940AEC16F008014F
:10135000026F0F01766B0F01776B510E0F0176252F
:10136000006E0F0E0F017721016E00C0E9FF01C072
:10137000EAFFEFCF00F000500801035D1BE2010E11
:10138000006E016A0F01765106E0E86CD8900036D5
:101390000136010FFCE3FF0EE56E0050E56E72ECC6
:1013A00012F0E652E6520F0176510F0177111CE15F
:1013B0008B8A1AD0010E006E016A0F01765106E089
:1013C000E86CD89000360136010FFCE3000EE56EA4
:1013D0000050E56E72EC12F0E652E6520F017651C3
:1013E0000F01771101E18B9A0F01763F02D00F01B7
:1013F000772B000E0F01775D03E1060E0F01765D7E
:10140000D8A0ABD70801032BE4CF01F0E4CF00F064
:10141000E4CFD9FFE4CFFBFFE4CFFAFFE4CFEAFF4C
:10142000E4CFE9FFE4CFF4FFE4CFF3FFE450E4CFEF
:10143000E0FFE4CFD8FF10004F70656E53746F6B00
:101440006572207374617274696E672E2E2E20731C
:10145000657269616C20776F726B696E670A0D0047
:101460000A0D000067253032780A0D00D9CFE5FF5C
:10147000E1CFD9FF00C0E5FF01C0E5FF02C0E5FFF5
:1014800003C0E5FF04C0E5FF05C0E5FF06C0E5FFBA
:1014900007C0E5FF08C0E5FF020EDBCF00F0030E3A
:1014A000DBCF01F0040EDBCF02F0050EDBCF03F043
:1014B000060EDBCF04F0070EDBCF05F00F0E076E34
:1014C000480E066E800E086E0850E56E0750E56EF9
:1014D0000650E56E0250E56E0150E56E0050E56E77
:1014E000C0EC07F0060EE1264FCF00F0016A005075
:1014F000066E026A50CF00F0016A005002260150C9
:1015000006220F0E016E480E006E800E076E000E52
:10151000E56E000EE56E000EE56E000EE56E000E47
:10152000E56E070EE56E0750E56E0150E56E005062
:10153000E56E87EC0BF0006EF3CF01F0090EE126AB
:101540000250001803E10650011801E022D00550B6
:10155000056E0450046E0350036E0F0E016E480EAC
:10156000006E800E026E000EE56E070EE56E0250F4
:10157000E56E0150E56E0050E56E0550E56E0450D5
:10158000E56E0350E56E68EC0EF0080EE126010EE4
:1015900001D0E86AE4CF08F0E4CF07F0E4CF06F02A
:1015A000E4CF05F0E4CF04F0E4CF03F0E4CF02F0A1
:1015B000E4CF01F0E4CF00F0E4CFD9FF1200D9CF9F
:1015C000E5FFE1CFD9FF00C0E5FF01C0E5FF02C0A4
:1015D000E5FF03C0E5FF04C0E5FF05C0E5FF06C069
:1015E000E5FF07C0E5FF08C0E5FF09C0E5FF0AC049
:1015F000E5FF0BC0E5FF0CC0E5FF0DC0E5FF0EC029
:10160000E5FF0FC0E5FF020EDBCF00F0030EDBCFDE
:1016100001F0040EDBCF02F0050EDBCF03F057CF55
:1016200004F058CF05F059CF06F05ACF07F0045018
:101630000F01575D086E05500F015859096E06508D
:101640000F0159590A6E07500F015A590B6E085075
:101650000C6E09500D6E0A500E6E0B500F6ED88036
:101660000FAED8901CE30B50E56E0A50E56E0950A2
:10167000E56E0850E56EFF0EE56EFF0EE56EFF0E9F
:10168000E56EFF0EE56EB6EC05F00C6EF3CF0DF0D7
:10169000F4CF0EF0E9CF0FF0080EE12608D008C015
:1016A0000CF009C00DF00AC00EF00BC00FF0035093
:1016B0000F5C08E102500E5C05E101500D5C02E197
:1016C00000500C5CD8A0B3D7E4CF0FF0E4CF0EF0FD
:1016D000E4CF0DF0E4CF0CF0E4CF0BF0E4CF0AF050
:1016E000E4CF09F0E4CF08F0E4CF07F0E4CF06F050
:1016F000E4CF05F0E4CF04F0E4CF03F0E4CF02F050
:10170000E4CF01F0E4CF00F0E4CFD9FF1200D9CF4D
:10171000E5FFE1CFD9FF00C0E5FF01C0E5FF02C052
:10172000E5FF03C0E5FF04C0E5FF05C0E5FF06C017
:10173000E5FF07C0E5FF08C0E5FF09C0E5FF0AC0F7
:10174000E5FF0BC0E5FF0CC0E5FF020EDBCF00F0AC
:10175000030EDBCF01F0040EDBCF02F0050EDBCF72
:1017600003F0060EDBCF04F0070EDBCF05F0080E0A
:10177000DBCF06F0090EDBCF07F00A0EDBCF08F057
:1017800003C009F004C00AF005C00BF006C00CF05D
:10179000FF0E032604220522062209500A100B1010
:1017A0000C103AE00850096E00C0E9FF01C0F3FFD9
:1017B00002502EEC16F00B6E002A02E3014A022AB8
:1017C0000B50091AE56A0950E56EE56A020EE56EEE
:1017D00053EC10F0096EF3CF0AF0040EE1260B6A09
:1017E000800E09260D0E0A22000E0B2209C0F6FFFC
:1017F0000AC0F7FF0BC0F8FF0900F5CF09F0090098
:10180000F5CF0AF007500C6E0B6A0B500918076EE3
:101810000C500A18086EB4D708C0F3FF0750E4CF85
:101820000CF0E4CF0BF0E4CF0AF0E4CF09F0E4CF02
:1018300008F0E4CF07F0E4CF06F0E4CF05F0E4CF02
:1018400004F0E4CF03F0E4CF02F0E4CF01F0E4CF02
:1018500000F0E4CFD9FF1200D9CFE5FFE1CFD9FFE7
:1018600000C0E5FF01C0E5FF02C0E5FF03C0E5FFE2
:1018700004C0E5FF05C0E5FF06C0E5FF07C0E5FFC2
:1018800008C0E5FF09C0E5FF0AC0E5FF020EDBCF97
:1018900000F0030EDBCF01F0040EDBCF02F0050EEB
:1018A000DBCF03F0060EDBCF04F0070EDBCF05F035
:1018B000080EDBCF06F0090EDBCF07F0086A0450F4
:1018C00005100610071005E1E968F468F368E86898
:1018D00047D0096A0750800BE8440A6E0A501BE1A2
:1018E000045004260536063607360750035C08E127
:1018F0000650025C05E10550015C02E10450005C09
:1019000006E2D890073206320532043204D0092AA2
:1019100009C008F0DFD70750035C08E10650025CFD
:1019200005E10550015C02E10450005C08E304504D
:10193000005E0550015A0650025A0750035AD890CB
:10194000073206320532043208C009F00806095091
:10195000E2E103C0E9FF02C0F4FF01C0F3FF005061
:10196000E4CF0AF0E4CF09F0E4CF08F0E4CF07F0C9
:10197000E4CF06F0E4CF05F0E4CF04F0E4CF03F0C9
:10198000E4CF02F0E4CF01F0E4CF00F0E4CFD9FFE0
:101990001200D9CFE5FFE1CFD9FF00C0E5FF01C0BC
:1019A000E5FF02C0E5FF03C0E5FF04C0E5FF05C099
:1019B000E5FF06C0E5FF07C0E5FF08C0E5FF09C079
:1019C000E5FF0AC0E5FF0BC0E5FF0CC0E5FF0DC059
:1019D000E5FF020EDBCF00F0030EDBCF01F0040EBB
:1019E000DBCF02F0050EDBCF03F0060EDBCF04F0F9
:1019F000070EDBCF05F0080EDBCF06F0090EDBCFBC
:101A000007F0086A096A0A6A0B6A200E0C6E035016
:101A1000800BE8440D6E0050002601360236033676
:101A20000850082609360A360B360D50D8A408800F
:101A300007500B5C08E106500A5C05E10550095CA3
:101A400002E10450085C09E30450085E0550095A9D
:101A500006500A5A07500B5A00800C2ED8D703C0E4
:101A6000E9FF02C0F4FF01C0F3FF0050E4CF0DF026
:101A7000E4CF0CF0E4CF0BF0E4CF0AF0E4CF09F0B0
:101A8000E4CF08F0E4CF07F0E4CF06F0E4CF05F0B0
:101A9000E4CF04F0E4CF03F0E4CF02F0E4CF01F0B0
:101AA000E4CF00F0E4CFD9FF1200D9CFE5FFE1CFBA
:101AB000D9FF00C0E5FF01C0E5FF02C0E5FF03C09C
:101AC000E5FF04C0E5FF05C0E5FF050ED924006E63
:101AD000000EDA20016E800E026E030E0026000E4C
:101AE0000122022206C0E5FF07C0E5FF08C0E5FFAE
:101AF000020EDBCF06F0030EDBCF07F0040EDBCFC8
:101B000008F00850056E0750046E0650036EE4CFCF
:101B100008F0E4CF07F0E4CF06F00250E56E015084
:101B2000E56E0050E56E070EDBCFE5FF060EDBCF5E
:101B3000E5FF050EDBCFE5FF0550E56E0450E56ED1
:101B40000350E56E0EEC00F0006EF3CF01F0090ECD
:101B5000E12606C0E5FF07C0E5FF08C0E5FF020E6D
:101B6000DBCF06F0030EDBCF07F0040EDBCF08F06F
:101B700000500624026E01500720036EE86A082018
:101B8000E4CF08F0E4CF07F0E4CF06F0E56A02C046
:101B9000E9FF03C0F3FF5CEC16F001C0F3FF005057
:101BA000E4CF05F0E4CF04F0E4CF03F0E4CF02F09B
:101BB000E4CF01F0E4CF00F0E4CFD9FF1200D9CF99
:101BC000E5FFE1CFD9FF00C0E5FF01C0E5FF02C09E
:101BD000E5FF03C0E5FF04C0E5FF05C0E5FF06C063
:101BE000E5FF07C0E5FF020EDBCF00F0030EDBCF01
:101BF00001F0040EDBCF02F0050EDBCF03F002C0D4
:101C000006F00650046E800A33E100C0E9FF01C00F
:101C1000F3FF025000EC15F0056EF3CF06F0F4CFA1
:101C200007F003C0E5FF05C0E9FF06C0F3FF07505A
:101C30005CEC16F000C0E9FF01C0F3FF025000ECBD
:101C400015F0056EF3CF06F0F4CF07F0052A02E396
:101C5000064A072A05C0E5FF06C0F4FF07C0F6FFE5
:101C600000C0E9FF01C0F3FF02503FEC16F01DD0A9
:101C700004AA1BD0047A045004E1035006EC00F0DF
:101C800014D00450010A04E1035002EC00F00DD01E
:101C900004500F0A04E10350B0EC16F006D00450D3
:101CA0000E0A03E10350A3EC16F0E4CF07F0E4CFF3
:101CB00006F0E4CF05F0E4CF04F0E4CF03F0E4CF86
:101CC00002F0E4CF01F0E4CF00F0E4CFD9FF12003E
:101CD000D9CFE5FFE1CFD9FF00C0E5FF01C0E5FFA7
:101CE00002C0E5FF03C0E5FF04C0E5FF05C0E5FF56
:101CF00006C0E5FF07C0E5FF08C0E5FF09C0E5FF36
:101D00000AC0E5FF0BC0E5FF0CC0E5FF020EDBCF0C
:101D100000F0030EDBCF01F0040EDBCF02F0050E66
:101D2000DBCF03F0060EDBCF04F0070EDBCF05F0B0
:101D3000080EDBCF06F0090EDBCF07F002500A6E6B
:101D40000150096E0050086E06C00BF007C00CF081
:101D5000FF0E062607220B500C101AE003C0E9FF05
:101D600004C0F3FF05502EEC16F00B6E032A02E3BD
:101D7000044A052A0BC0E5FF08C0E9FF09C0F3FFCC
:101D80000A505CEC16F0082ADFE3094A0A2ADCD77D
:101D900002C0F4FF01C0F3FF0050E4CF0CF0E4CF29
:101DA0000BF0E4CF0AF0E4CF09F0E4CF08F0E4CF81
:101DB00007F0E4CF06F0E4CF05F0E4CF04F0E4CF81
:101DC00003F0E4CF02F0E4CF01F0E4CF00F0E4CF81
:101DD000D9FF1200D9CFE5FFE1CFD9FF00C0E5FF61
:101DE00001C0E5FF02C0E5FF03C0E5FF04C0E5FF59
:101DF00005C0E5FF06C0E5FF020EDBCF00F0030ED5
:101E0000DBCF01F0040EDBCF02F0050EDBCF03F0D9
:101E1000060EDBCF04F0070EDBCF05F0080EDBCF9C
:101E200006F0D88003AED89015E306500A0A12E1F6
:101E300004C0E9FF05C0EAFF2D0EEF6E044A052A33
:101E4000031E021E011E006C05E1012A03E1022AA5
:101E5000D8B4032A0650E56E0550E56E0450E56ED1
:101E60000350E56E0250E56E0150E56E0050E56EE0
:101E7000AAEC08F0070EE126E4CF06F0E4CF05F067
:101E8000E4CF04F0E4CF03F0E4CF02F0E4CF01F0BC
:101E9000E4CF00F0E4CFD9FF1200D9CFE5FFE1CFC6
:101EA000D9FF00C0E5FF01C0E5FF02C0E5FF03C0A8
:101EB000E5FF04C0E5FF05C0E5FF06C0E5FF020E33
:101EC000DBCF00F0030EDBCF01F0040EDBCF02F01E
:101ED000050EDBCF03F0046A056A0350800BE8446B
:101EE000066E065011E10250022603360350015CD3
:101EF00002E10250005C04E2D8900332023204D0C6
:101F0000052A05C004F0E9D70350015C02E1025044
:101F1000005C04E30250005E0350015AD890033283
:101F2000023204C005F004060550EEE101C0F3FFE3
:101F30000050E4CF06F0E4CF05F0E4CF04F0E4CFA6
:101F400003F0E4CF02F0E4CF01F0E4CF00F0E4CFFF
:101F5000D9FF1200D9CFE5FFE1CFD9FF00C0E5FFDF
:101F600001C0E5FF02C0E5FF03C0E5FF04C0E5FFD7
:101F7000020EDBCF00F0030EDBCF01F0040EDBCF4F
:101F800002F035EC15F0036E03502DE074CF03F032
:101F900075CF04F00F01743F02D00F01752B000EB6
:101FA000E56E640EE56E0450E56E0350E56E4DEC93
:101FB0000FF0036EF3CF04F0040EE126800E03262B
:101FC000000E042203C0E9FF04C0EAFFEFCF03F0D4
:101FD00003C0E5FF00C0E9FF01C0F3FF02505CEC65
:101FE00016F0010E01D0E86AE4CF04F0E4CF03F06C
:101FF000E4CF02F0E4CF01F0E4CF00F0E4CFD9FF6A
:102000001200D9CFE5FFE1CFD9FF00C0E5FF01C045
:10201000E5FF02C0E5FF020EDBCF00F0030EDBCFD1
:1020200001F000AC06D0020EE56EEFEC12F0E652C5
:1020300005D0010EE56EEFEC12F0E6520138E844EF
:102040001F0B026E0250E56E3BEC13F0E6523F0EA2
:1020500000160050E56E17EC13F0E65267EC16F030
:1020600067EC16F0026E0050E56E17EC13F0E652C6
:10207000070E0116010E006E015005E0E86CD890C5
:102080000036010FFDE3005002120250E56E5EECD7
:1020900013F0E652E4CF02F0E4CF01F0E4CF00F019
:1020A000E4CFD9FF1200D9CFE5FFE1CFD9FF00C0BF
:1020B000E5FF01C0E5FF02C0E5FF03C0E5FF020E3A
:1020C000DBCF00F0030EDBCF01F0040EDBCF02F01C
:1020D000050EDBCF03F000500F01786F0150796FD0
:1020E00002500F017A6F03507B6F0F0178510F017F
:1020F0007A03F4CF01F0F3CF00F000500F017C6FB2
:1021000001507D6F0F0178510F017B03F3CF00F079
:102110000F0179510F017A03F3CF01F0015000262E
:102120000F017D51002600507D6F7DCFF3FF7C5164
:10213000E4CF03F0E4CF02F0E4CF01F0E4CF00F00D
:10214000E4CFD9FF1200D8CFE5FFE0CFE5FFE56E81
:10215000F3CFE5FFF4CFE5FFE9CFE5FFEACFE5FFF9
:10216000FACFE5FFFBCFE5FFD9CFE5FFE1CFD9FF00
:1021700000C0E5FF9EA010D0FE0ECF6EC80ECE6E42
:102180009E900F01572B08E30F01582B05E30F0119
:10219000593F02D00F015A2B9FEC16F0006E0050F1
:1021A0000BE0E3EC15F0006E0050E56E8AEC11F0E8
:1021B000E65200508CEC16F0E4CF00F0E4CFD9FFEB
:1021C000E4CFFBFFE4CFFAFFE4CFEAFFE4CFE9FF7F
:1021D000E4CFF4FFE4CFF3FFE450E4CFE0FFE4CF3B
:1021E000D8FF1000D9CFE5FFE1CFD9FF00C0E5FF50
:1021F00001C0E5FF02C0E5FF030EE56EEFEC12F053
:10220000E652006A0050E56E3BEC13F0E652000E19
:10221000E56E17EC13F0E652000EE56EBBEC15F020
:10222000E652000EE56E38EC14F0E652010EE56E53
:1022300055EC14F0E652400E016E7FEC13F00000F6
:10224000000000000000000000000000000001503D
:10225000026E0204016E0150F0E1002A080E005CDB
:10226000D1E3010EE56EEFEC12F0E652E4CF02F09E
:10227000E4CF01F0E4CF00F0E4CFD9FF1200D9CFD2
:10228000E5FFE1CFD9FF00C0E5FF01C0E5FF02C0D7
:10229000E5FF03C0E5FF04C0E5FF020EDBCF00F061
:1022A000030EDBCF01F0040EDBCF02F0050EDBCF17
:1022B00003F000C0E9FF01C0F3FF02502EEC16F05E
:1022C000046E045008E00450031805E0002A02E3FD
:1022D000014A022AEED700C0E9FF01C0F3FF025015
:1022E0002EEC16F0031806E102C0F4FF01C0F3FF64
:1022F000005003D0F46AF36AE86AE4CF04F0E4CF54
:1023000003F0E4CF02F0E4CF01F0E4CF00F0E4CF3B
:10231000D9FF1200D9CFE5FFE1CFD9FF00C0E5FF1B
:1023200001C0E5FF02C0E5FF020EDBCF00F035EC97
:1023300015F0016E0150640A24E072CF01F073CFF2
:1023400002F00F01723F02D00F01732B000EE56EF9
:10235000640EE56E0250E56E0150E56E4DEC0FF037
:10236000016EF3CF02F0040EE126800E0126000E6E
:10237000022201C0E9FF02C0EAFF00C0EFFF010E28
:1023800001D0E86AE4CF02F0E4CF01F0E4CF00F03E
:10239000E4CFD9FF1200D9CFE5FFE1CFD9FF00C0CC
:1023A000E5FF01C0E5FF02C0E5FF03C0E5FF020E47
:1023B000DBCF00F0030EDBCF01F0040EDBCF02F029
:1023C000050EDBCF03F0C26A0F0E00160044E8448E
:1023D000FC0BC26E3F0E0216300E03140210C16ECB
:1023E000800E0314006E3F0E011601500010C06EE7
:1023F00003AC03D09E9C9D8CF28CC280E4CF03F092
:10240000E4CF02F0E4CF01F0E4CF00F0E4CFD9FF55
:102410001200D9CFE5FFE1CFD9FF00C0E5FF01C031
:10242000E5FF02C0E5FF03C0E5FF020EDBCF00F0D1
:10243000030EDBCF01F0040EDBCF02F09BEC16F0B5
:10244000036E0350FBE100C0E9FF01C0F3FF02503F
:102450002EEC16F08CEC16F000C0E9FF01C0F3FF83
:1024600002502EEC16F0036E002A02E3014A022A03
:102470000350E4E1E4CF03F0E4CF02F0E4CF01F055
:10248000E4CF00F0E4CFD9FF1200D9CFE5FFE1CFD0
:10249000D9FF00C0E5FF020EDBCF00F0010EE56EB4
:1024A000E1EC13F0E652010EE56EFEEC13F0E6529D
:1024B000000EE56E38EC14F0E652000EE56E55ECB9
:1024C00014F0E652010E00163E0E00120050E56EAA
:1024D000BBEC15F0E6527FEC13F0E4CF00F0E4CF54
:1024E000D9FF1200D9CFE5FFE1CFD9FF00C0E5FF4A
:1024F00001C0E5FF020EDBCF00F0030EDBCF01F0E1
:102500003F0E001600500116956A015006E000507B
:102510000801041304C88CFF06D0001E00500801F7
:10252000041704C88CFF898E899E8C6AE4CF01F061
:10253000E4CF00F0E4CFD9FF1200D9CFE5FFE1CF1F
:10254000D9FF000EE56E8FEC14F0E652000EE56E3A
:10255000000EE56E000EE56EC80EE56EDFEC0AF0CB
:10256000040EE126010EE56E8FEC14F0E652000E2B
:10257000E56E000EE56E000EE56EC80EE56EDFEC52
:102580000AF0040EE126E4CFD9FF1200D9CFE5FF0F
:10259000E1CFD9FF000EE56E000EE56E000EE56E90
:1025A000010EE56EDFEC0AF0040EE126000EE56E8A
:1025B0001BEC14F0E652000EE56E000EE56E000E08
:1025C000E56E010EE56EDFEC0AF0040EE126010E69
:1025D000E56E1BEC14F0E652E4CFD9FF1200D9CF20
:1025E000E5FFE1CFD9FF00C0E5FF020EDBCF00F031
:1025F00000A006D0010EE56EE1EC13F0E65205D026
:10260000000EE56EE1EC13F0E65200A206D0010EDA
:10261000E56EFEEC13F0E65205D0000EE56EFEEC22
:1026200013F0E652E4CF00F0E4CFD9FF1200D9CF87
:10263000E5FFE1CFD9FF00C0E5FF020EDBCF00F0E0
:10264000E5EC14F0000EE56E55EC14F0E652000EC9
:10265000E56E38EC14F0E6523F0E0016008C005088
:10266000E56EBBEC15F0E6527FEC13F0E4CF00F022
:10267000E4CFD9FF1200D9CFE5FFE1CFD9FF00C0E9
:10268000E5FF020EDBCF00F0E5EC14F0000EE56E86
:1026900055EC14F0E652000EE56E38EC14F0E652FC
:1026A000B80E00120050E56EBBEC15F0E6527FEC60
:1026B00013F0E4CF00F0E4CFD9FF1200D9CFE5FF4B
:1026C000E1CFD9FF00C0E5FF020EDBCF00F0E5EC63
:1026D00014F0010EE56E55EC14F0E652000EE56EB6
:1026E00038EC14F0E6520050E56EBBEC15F0E65203
:1026F0007FEC13F0E4CF00F0E4CFD9FF1200D9CF84
:10270000E5FFE1CFD9FF010EE56E72EC14F0E65261
:1027100000000000000000000000000000000000B9
:10272000000EE56E72EC14F0E652000000000000AE
:1027300000000000000000000000E4CFD9FF1200FC
:10274000D9CFE5FFE1CFD9FF010EE56E8FEC14F094
:10275000E6520801066B000EE56EE1EC13F0E6525E
:10276000000EE56EFEEC13F0E652C6EC12F0010E20
:10277000E56E45EC12F0E652F2EC10F0E4CFD9FF32
:102780001200E8AE0AD0F3CFEAFFEE50EECFF3FF2F
:10279000EECFF4FFEECFE9FF1200E8BCACEF16F08D
:1027A000E9CFF6FFF3CFF7FFF86E0900F550090007
:1027B000F5CFF3FF0900F5CFF4FF0900F5CFE9FFEE
:1027C0001200D9CFE5FFE1CFD9FF00C0E5FF020E2F
:1027D000DBCF00F0956A005005E00801068B06C8C3
:1027E0008CFF04D00801069B06C88CFF898C899C4D
:1027F0008C6AE4CF00F0E4CFD9FF1200D9CFE5FF17
:10280000E1CFD9FF00C0E5FF020EDBCF00F0956AF3
:10281000005005E00801068906C88CFF04D00801B5
:10282000069906C88CFF898C899C8C6AE4CF00F0DD
:10283000E4CFD9FF1200D9CFE5FFE1CFD9FF00C027
:10284000E5FF020EDBCF00F0956A005005E00801BD
:10285000068706C88CFF04D00801069706C88CFFBF
:10286000898C899C8C6AE4CF00F0E4CFD9FF1200F8
:10287000D9CFE5FFE1CFD9FF00C0E5FF020EDBCFE6
:1028800000F0956A005005E00801068506C88CFF37
:1028900004D00801069506C88CFF898C899C8C6A37
:1028A000E4CF00F0E4CFD9FF1200D9CFE5FFE1CFAC
:1028B000D9FF00C0E5FF020EDBCF00F0956A0050A3
:1028C00005E00801068306C88CFF04D008010693C2
:1028D00006C88CFF898C899C8C6AE4CF00F0E4CF19
:1028E000D9FF1200D9CFE5FFE1CFD9FF00C0E5FF46
:1028F000020EDBCF00F0956A005005E0080106816A
:1029000006C88CFF04D00801069106C88CFF898C8C
:10291000899C8C6AE4CF00F0E4CFD9FF1200D9CFB4
:10292000E5FFE1CFD9FF00C0E5FF020EDBCF00F0ED
:10293000956A005005E00801068F06C88CFF04D098
:102940000801069F06C88CFF898C899C8C6AE4CF9D
:1029500000F0E4CFD9FF1200F2CFF6FFF29EA69E60
:10296000A69CE9CFA9FFF3CFAAFFA680A850A94A49
:10297000AA2AA680A8CFF3FFA94AAA2AA680A8CF90
:10298000F4FFA94AAA2AA680A8CFEAFFF6BEF28ED3
:102990001200D9CFE5FFE1CFD9FFD58ED590D592E2
:1029A000D594D59CD59AD596F184F28AF284CD80BF
:1029B000CD8ECD92CD96CD88CD8A9F909D809E80E4
:1029C000F28CF28EE4CFD9FF1200D9CFE5FFE1CF30
:1029D000D9FF00000000000000000000000000001F
:1029E0000000000EE56E000EE56E000EE56E0A0EAC
:1029F000E56EDFEC0AF0040EE126E4CFD9FF120009
:102A0000E8AE08D0F3CFEAFFEE50EECFF3FFEECF03
:102A1000F4FF1200E8BCAAEF16F0E9CFF6FFF3CFFF
:102A2000F7FFF86E0900F5500900F5CFF3FF090034
:102A3000F5CFF4FF1200F2CFEAFFF29EA69EA69C0D
:102A4000A684E9CFA9FFF3CFAAFFE4CFA8FF7BECD0
:102A500016F0F4CFA8FF7BEC16F0F6CFA8FF7BECC6
:102A600016F0A694EABEF28E1200D9CFE5FFE1CFB0
:102A7000D9FF00C0E5FF01C0E5FF0F017251006EF4
:102A80000F017451016E0150005E0050E4CF01F05F
:102A9000E4CF00F0E4CFD9FF1200F2CFF6FFF29EB0
:102AA000A69EA69CE9CFA9FFF3CFAAFFA680A850B7
:102AB000A94AAA2AA680A8CFF3FFA94AAA2AA680D3
:102AC000A8CFF4FFF6BEF28E1200D9CFE5FFE1CF1A
:102AD000D9FF00C0E5FF020EDBCF00F0610E005C05
:102AE00005E37B0E005C02E2010E01D0E86AE4CF50
:102AF00000F0E4CFD9FF1200E8AE06D0F3CFEAFF32
:102B0000EE50EECFF3FF1200E8BCA8EF16F0E9CFCD
:102B1000F6FFF3CFF7FFF86E0900F5500900F5CF87
:102B2000F3FF1200D9CFE5FFE1CFD9FF670EAF6EFB
:102B3000AC84AC98B886AB8E9D989F989D8A9F9ADE
:102B4000AC9CAB9CAB88AC8AE4CFD9FF1200D9CF48
:102B5000E5FFE1CFD9FF956A92988988929E899E78
:102B60000801046B929C899C94948B94949A8B9A00
:102B7000E4CFD9FF1200D9CFE5FFE1CFD9FF00C0E4
:102B8000E5FF020EDBCF00F0956A00C08CFF8B845E
:102B90008B948C6AE4CF00F0E4CFD9FF1200D9CF38
:102BA000E5FFE1CFD9FF000EE56E000EE56E000EE9
:102BB000E56E0A0EE56EDFEC0AF0040EE126010E6A
:102BC000E4CFD9FF1200F00E08010715076FABAC78
:102BD00004D00791ABA001D00781ABA402D00801BB
:102BE0000785ABA202D008010787AE501200F2CFD2
:102BF000F6FFF29EA69EA69CE9CFA9FFF3CFAAFFFF
:102C0000A680A850A94AAA2AA680A8CFF3FFF6BE9C
:102C1000F28E1200D9CFE5FFE1CFD9FF00C0E5FF6A
:102C2000FF0E956E899883CF00F089880050E4CF1D
:102C300000F0E4CFD9FF1200F2CFEAFFF29EA69E89
:102C4000A69CA684E9CFA9FFF3CFAAFFE4CFA8FFF3
:102C50007BEC16F0A694EABEF28E1200E8AE04D029
:102C6000F3CFEAFFEE501200E8BCA6EF16F0E9CF72
:102C7000F6FFF3CFF7FFF86E0900F5501200E8AE4B
:102C800009D0F3CFEAFFE4CFEEFFF4CFEEFFF6CFAB
:102C9000EEFF1200E8BCAEEF16F01200F2CFF6FF26
:102CA000F29EA69EA69CE9CFA9FFF3CFAAFFA6801D
:102CB000A850F6BEF28E1200E8AE05D0F3CFEAFFC0
:102CC000E4CFEEFF1200E8BC0AEF00F01200D9CF0B
:102CD000E5FFE1CFD9FF7FEC13F0E86AE4CFD9FF3D
:102CE000120017EEFFF027EEFFF0F86AA68EA69C02
:102CF00014EC04F0FFD7550EA76EAA0EA76EA6829D
:102D0000A6B2FED7A94AAA2AD9CFE5FFE1CFD9FFBB
:102D1000FF00E4CFD9FF1200ACAC04D0AC900801A6
:102D200007B3AC80AD6E1200D9CFE5FFE1CFD9FF7C
:102D3000E4CFD9FF1200000EACA2010F1200000E6A
:102D40009EBA010F1200E8CF7FFF12004EEF16F07F
:102D5000F7EF15F04DEF15F0ACEF14F01BEF15F099
:022D600012005F
:020000040030CA
:0300010008191AC1
:020005008180F8
:00000001FF
