:020000040000FA
:10000000F6EF16F0C96E1200F3EF09F0ACA2FED7BE
:10001000AD6E1200C28212000BEF11F0D9CFE5FFD6
:10002000E1CFD9FF00C0E5FF01C0E5FF02C0E5FF59
:1000300003C0E5FF04C0E5FF05C0E5FF06C0E5FF1E
:1000400007C0E5FF08C0E5FF09C0E5FF0AC0E5FFFE
:100050000BC0E5FF0CC0E5FF0DC0E5FF0EC0E5FFDE
:100060000FC0E5FF10C0E5FF11C0E5FF12C0E5FFBE
:1000700013C0E5FF14C0E5FF15C0E5FF16C0E5FF9E
:1000800017C0E5FF18C0E5FF19C0E5FF1AC0E5FF7E
:100090001BC0E5FF1CC0E5FF1DC0E5FF1EC0E5FF5E
:1000A000020EDBCF00F0030EDBCF01F0040EDBCF3E
:1000B00002F0050EDBCF03F0060EDBCF04F0070ED7
:1000C000DBCF05F0080EDBCF06F0090EDBCF07F023
:1000D0000A0EDBCF08F0096A0A6A02C00DF00D5063
:1000E000800A0DE102500801026F0150016F0050BB
:1000F000006F080E016E000E006E800E026E03C0CF
:10010000E9FF04C0F3FF0550B3EC16F00B6E0B5083
:10011000D8B4CAEF03F00B50250A02E0B1EF03F0A8
:100120000C6A0D6A0E6A0F6A106A0A0E116E126A64
:10013000136A146A200E156E1668176A2B0E186E55
:10014000032A02E3044A052A03C0E9FF04C0F3FFBF
:100150000550B3EC16F0196E250A13E11950E56E3F
:100160000250E56E0150E56E0050E56E47EC0EF072
:10017000040EE126094A0A2A032A02E3044A052A50
:10018000BED71950300A06E1300E156E032A02E37D
:10019000044A052A03C0E9FF04C0F3FF0550B3EC8D
:1001A00016F02D0A06E1010E146E032A02E3044A3A
:1001B000052A03C0E9FF04C0F3FF0550B3EC16F0B5
:1001C000200A08E1010E176E200E186E032A02E3C2
:1001D000044A052A03C0E9FF04C0F3FF0550B3EC4D
:1001E00016F02B0A06E1010E176E032A02E3044AF9
:1001F000052A03C0E9FF04C0F3FF0550B3EC16F075
:10020000196E800F4F0F2DE31950800F460F29E212
:1002100003C019F004C01AF005C01BF019C0E9FFB3
:100220001AC0F3FF1B50B3EC16F01C6E800F500F7A
:1002300012E31C50800F460F0EE213500A0DF3CF4D
:100240001DF01D501C26D00E1C24136E192A02E32B
:100250001A4A1B2AE3D719C003F01AC004F01BC0C6
:1002600005F003C0E9FF04C0F3FF0550B3EC16F03E
:100270002E0A2EE1032A02E3044A052A166A03C065
:1002800019F004C01AF005C01BF019C0E9FF1AC02C
:10029000F3FF1B50B3EC16F01C6E800F500F12E3EF
:1002A0001C50800F460F0EE216500A0DF3CF1DF0C2
:1002B0001D501C26D00E1C24166E192A02E31A4A61
:1002C0001B2AE3D719C003F01AC004F01BC005F0C5
:1002D00003C0E9FF04C0F3FF0550B3EC16F0196E3C
:1002E0006C0A07E1010E0C6E032A02E3044A052A98
:1002F00009D01950680A06E1010E0E6E032A02E3C6
:10030000044A052A03C0E9FF04C0F3FF0550B3EC1B
:1003100016F0750A06E1010E106E032A02E3044A84
:10032000052A03C0E9FF04C0F3FF0550B3EC16F043
:10033000196E730A05E1010E0D6E200E156E3FD089
:100340001950780A03E1100E116E39D01950580A6D
:1003500005E1100E116E010E126E31D01950630AB4
:1003600002E1116A2CD019506F0A03E1080E116ED8
:1003700026D01950660A03E1010E0F6E20D01950E5
:10038000640A1DE01950690A1AE0105005E0FF0EDA
:1003900003260422052213D01950E56E0250E56EA3
:1003A0000150E56E0050E56E47EC0EF0040EE126BC
:1003B000094A0A2A032A02E3044A052AA0D60D5054
:1003C00021E00650030F0D6E000E0720196E000E7F
:1003D00008201A6E0DC006F019C007F01AC008F008
:1003E000FD0E0D26FF0E19221A220DC0E9FF19C0BD
:1003F000F3FF1A5085EC15F00D6EF3CF19F0F4CF22
:100400001AF000D10F500DE0000E1A6E080E196E92
:100410001C0E0D6E040E0626000E0722082216681A
:10042000F1D016680C5023E00650040F0C6E000E3D
:1004300007200F6E000E08201B6E0CC006F00FC0C8
:1004400007F01BC008F0FC0E0C26FF0E0F221B222B
:100450000CC0E9FF0FC0F3FF1B5029EC14F00C6E29
:10046000F3CF0FF0F4CF1BF0E9CF1CF06AD00E50A1
:1004700032E00650020F0E6E000E07201D6E000EB9
:1004800008201E6E0EC006F01DC007F01EC008F04A
:10049000FE0E0E26FF0E1D221E220EC0E9FF1DC0FD
:1004A000F3FF1E5001EC16F00E6E0EC00CF0E86A61
:1004B0000EBEFF0E0F6E1B6E1C6E11500A0A03E17A
:1004C0001050D8B43ED00C500E6E0EC00CF00F6A17
:1004D0001B6A1C6A36D00650020F0E6E000E0720F3
:1004E0001D6E000E08201E6E0EC006F01DC007F027
:1004F0001EC008F0FE0E0E26FF0E1D221E220EC08C
:10050000E9FF1DC0F3FF1E5001EC16F00E6EF3CF95
:100510001DF00EC00CF01DC00FF0E86A1DBEFF0EEE
:100520001B6E1C6E11500A0A02E110500AE00C50BA
:100530000E6E0F501D6E0EC00CF01DC00FF01B6A2A
:100540001C6A0F0E196E420E0D6E800E1A6E11503F
:10055000D8B440D0105013E01150E56E0F0EE56E88
:10056000420EE56E1C50E56E1B50E56E0F50E56EB9
:100570000C50E56E17EC09F0070EE12612D0115071
:10058000E56E0F0EE56E420EE56E1C50E56E1B50DB
:10059000E56E0F50E56E0C50E56E52EC0FF0070E55
:1005A000E12617502FE00DC0E9FF19C0F3FF1A50E4
:1005B000B3EC16F02D0A26E0FF0E0D2619221A22A2
:1005C00018C0E5FF0DC0E9FF19C0F3FF1A50E1ECB8
:1005D00016F018D00CC0E5FF0DC0E9FF19C0F3FFFD
:1005E0001A50E1EC16F00D50010F0C6E000E1920A0
:1005F0000E6E000E1A20E56A0CC0E9FF0EC0F3FF74
:10060000E1EC16F00DC00CF019C00EF01AC00FF09E
:1006100013C010F0105010E00CC0E9FF0EC0F3FF43
:100620000F50B3EC16F0176E175006E00C2A02E3D9
:100630000E4A0F2A1006EED710C013F014501EE118
:1006400009C00CF00AC00EF010C00FF00F5010E0FF
:100650001550E56E0250E56E0150E56E0050E56EF6
:1006600047EC0EF0040EE1260C4A0E2A0F06EED7D8
:100670000CC009F00EC00AF00FC013F016C00CF049
:100680000DC00DF019C00EF01AC00FF009C010F027
:100690000AC015F00DC0E9FF0EC0F3FF0F50B3EC18
:1006A00016F0166E1650D8B43ED00CC016F0176A6D
:1006B000161E171E1650171005E00CC016F00C067B
:1006C000165031E00DC0E9FF0EC0F3FF0F50B3EC40
:1006D00016F0116E125010E01150E56EEAEC15F0B4
:1006E000166EE652165004E01150166E169A02D09D
:1006F00011C016F016C011F01150E56E0250E56EF3
:100700000150E56E0050E56E47EC0EF0040EE12658
:100710000D2A02E30E4A0F2A104A152A1350D8B4A4
:10072000B9D71306B7D710C009F015C00AF0145096
:100730002BE010C00CF015C00DF013C00EF00E50E1
:100740001FE0200EE56E0250E56E0150E56E005090
:10075000E56E47EC0EF0040EE1260C4A0D2A0E065B
:10076000EED70B50E56E0250E56E0150E56E00507D
:10077000E56E47EC0EF0040EE126094A0A2A04D081
:100780000CC009F00DC00AF0032A02E3044A052A4E
:100790007FEF00F00AC0F3FF0950E4CF1EF0E4CF72
:1007A0001DF0E4CF1CF0E4CF1BF0E4CF1AF0E4CF4F
:1007B00019F0E4CF18F0E4CF17F0E4CF16F0E4CF4F
:1007C00015F0E4CF14F0E4CF13F0E4CF12F0E4CF4F
:1007D00011F0E4CF10F0E4CF0FF0E4CF0EF0E4CF4F
:1007E0000DF0E4CF0CF0E4CF0BF0E4CF0AF0E4CF4F
:1007F00009F0E4CF08F0E4CF07F0E4CF06F0E4CF4F
:1008000005F0E4CF04F0E4CF03F0E4CF02F0E4CF4E
:1008100001F0E4CF00F0E4CFD9FF12003C4E4F20AE
:10082000464C4F41543E0000D350FC0BD36ED35086
:100830008F0B7009D36ED18004000F01676B0F011D
:10084000686B0F01696B0F016A6B0801036B08018C
:10085000046B0801056B0801066B08010F6BD08E55
:100860004EEC15F09F9A9F9817EC16F0000EE56E6F
:10087000000EE56E030EE56EE80EE56E47EC0BF03C
:10088000040EE126000E026E140E016EFA0E006ECA
:100890000250E56E0150E56E0050E56E71EC12F00D
:1008A000030EE126B00EE56E030EE56E3C0EE56E1E
:1008B000000EE56E33EC12F0040EE1262CEC16F07F
:1008C000BAEC15F0006E005023E1010EE56EF7EC76
:1008D00014F0E652000EE56E000EE56E030EE56EB6
:1008E000E80EE56E47EC0BF0040EE126000EE56E17
:1008F000F7EC14F0E652000EE56E000EE56E030E06
:10090000E56EE80EE56E47EC0BF0040EE126D8D755
:10091000010EE56EF7EC14F0E6528FEC16F00801CC
:10092000106F0F01616B0F01626B0F01636B0F01A1
:10093000646B0F01656B0F01666B080E016E110E83
:10094000006E800E026E0250E56E0150E56E0050A2
:10095000E56E12EC10F0006E030EE1260050D8B4E4
:100960003DD1080111510A0A05E0080111512E0A72
:1009700001E009D108010F6B000E016EE40E006E5C
:10098000800E026E000E046EF90E036E800E056E70
:100990000550E56E0450E56E0350E56E0250E56EBD
:1009A0000150E56E0050E56E9EEC0AF0006E060EFA
:1009B000E1260050D8B4E3D004008B8A0001F9513D
:1009C000006E0050610A01E196D00050670A01E113
:1009D0003CD00050730A05E000507A0A01E169D06A
:1009E000CAD0006A610E0024016E026A0F0E022254
:1009F0000028036EF90E0324046E056A000E05221A
:100A000004C0E9FF05C0EAFFEFCF04F001C0E9FF31
:100A100002C0EAFF04C0EFFF03C000F0060E005C56
:100A2000E1E3210E11EC17F0000E026E150E016EBF
:100A3000220E006E0250E56E0150E56E0050E56E2C
:100A400071EC12F0030EE126C9D012C800F0016A61
:100A5000000E046E150E036E260E026E0F0E066E4D
:100A60004E0E056E800E076E0150E56E0050E56E6D
:100A70000450E56E0350E56E0250E56E0750E56EDA
:100A80000650E56E0550E56EBDEC0DF0080EE12652
:100A90000F0E016E4E0E006E800E026E0250E56E5D
:100AA0000150E56E0050E56E71EC12F0030EE12688
:100AB00095D07A0E11EC17F0000E026E150E016E35
:100AC000220E006E0250E56E0150E56E0050E56E9C
:100AD00071EC12F0030EE126000EE56E000EE56EDD
:100AE000000EE56E640EE56E47EC0BF0040EE12699
:100AF00009EC17F073D0006A00C001F0026A000E22
:100B0000056E150E046E2E0E036E0F0E076E4E0E42
:100B1000066E800E086E0F013251E56E0F013151E5
:100B2000E56E0250E56E0150E56E0550E56E04502D
:100B3000E56E0350E56E0850E56E0750E56E065011
:100B4000E56EBDEC0DF00A0EE1260F0E026E4E0EA4
:100B5000016E800E036E0350E56E0250E56E01508B
:100B6000E56E71EC12F0030EE126002A080E005C1F
:100B7000D8A0C2D733D03F0E11EC17F02FD03F0EC4
:100B800011EC17F02BD0150E08010F5D10E2E40EEA
:100B900008010F25006E016A000E012200C0E9FF66
:100BA00001C0EAFF11C8EFFF08010F2B17D00001A9
:100BB000F86B08010F6B2B0E11EC17F0000E026E94
:100BC000150E016E220E006E0250E56E0150E56EAC
:100BD0000050E56E71EC12F0030EE126080112518F
:100BE0000801101904E012C810F805EC13F0006AAF
:100BF000016A026A0050E56E14EC15F0E6520AEC48
:100C000000F02CEC17F0036E0350FBE1310E0124D1
:100C1000036E0F0E0220046E20EC17F0056EF3CF6A
:100C200006F003C0E9FF04C0EAFF05C0EEFF06C0FE
:100C3000EFFF020E0126D8B0022A002A080E005C3F
:100C4000D9E37BD61200D9CFE5FFE1CFD9FF00C0B1
:100C5000E5FF01C0E5FF02C0E5FF03C0E5FF04C0FA
:100C6000E5FF05C0E5FF06C0E5FF07C0E5FF020E92
:100C7000DBCF00F0030EDBCF01F0040EDBCF02F080
:100C8000050EDBCF03F0060EDBCF04F0070EDBCF43
:100C900005F0080EDBCF06F0090EDBCF07F00050A1
:100CA0000F016B6F01506C6F02506D6F03506E6FD0
:100CB00004500F016F6F0550706F0650716F075031
:100CC000726F0F016B510F017103F4CF01F0F3CF7D
:100CD00000F000500F01756F0150766F0F016B51DE
:100CE0000F016F03F4CF01F0F3CF00F000500F01BC
:100CF000736F0150746F0F016E510F016F03F3CFCB
:100D000000F00F01765100260050766F0F016D51F3
:100D10000F017003F3CF00F00F0176510026005051
:100D2000766F0F016D510F016F03F4CF01F0F3CF18
:100D300000F00F0175510026765101220050756FA9
:100D40000150766F0F016C510F017003F4CF01F069
:100D5000F3CF00F00F0175510026765101220050AB
:100D6000756F0150766F0F016C510F017103F3CF56
:100D700000F000500F017A6F0F016C510F016F03EB
:100D8000F4CF01F0F3CF00F000500F01786F015065
:100D9000796F0F016B510F017203F3CF00F0005018
:100DA0000F017E6F0F016B510F017003F4CF01F043
:100DB000F3CF00F000500F017C6F01507D6F0F01E9
:100DC000776B0F017B6B0F0177510F017325006E5D
:100DD0000F0178510F017421016E0F0179510F013C
:100DE0007521026E0F017A510F017621036E0050BA
:100DF000736F0150746F0250756F0350766F0F015F
:100E00007B510F017325006E0F017C510F0174217E
:100E1000016E0F017D510F017521026E0F017E5190
:100E20000F017621036E03C0E9FF02C0F4FF01C089
:100E3000F3FF0050E4CF07F0E4CF06F0E4CF05F075
:100E4000E4CF04F0E4CF03F0E4CF02F0E4CF01F00C
:100E5000E4CF00F0E4CFD9FF1200000021104220BF
:100E600063308440A550C660E770088129914AA18B
:100E70006BB18CC1ADD1CEE1EFF131121002733202
:100E80005222B5529442F772D662399318837BB3DB
:100E90005AA3BDD39CC3FFF3DEE362244334200492
:100EA0000114E664C774A44485546AA54BB528852B
:100EB0000995EEE5CFF5ACC58DD5533672261116E2
:100EC0003006D776F6669556B4465BB77AA719977B
:100ED0003887DFF7FEE79DD7BCC7C448E55886686A
:100EE000A7784008611802282338CCC9EDD98EE9CB
:100EF000AFF9488969990AA92BB9F55AD44AB77A42
:100F0000966A711A500A333A122AFDDBDCCBBFFB1A
:100F10009EEB799B588B3BBB1AABA66C877CE44C51
:100F2000C55C222C033C600C411CAEED8FFDECCD6A
:100F3000CDDD2AAD0BBD688D499D977EB66ED55E21
:100F4000F44E133E322E511E700E9FFFBEEFDDDFBA
:100F5000FCCF1BBF3AAF599F788F8891A981CAB146
:100F6000EBA10CD12DC14EF16FE18010A100C23078
:100F7000E3200450254046706760B9839893FBA333
:100F8000DAB33DC31CD37FE35EF3B1029012F322C8
:100F9000D2323542145277625672EAB5CBA5A89583
:100FA00089856EF54FE52CD50DC5E234C324A01418
:100FB00081046674476424540544DBA7FAB7998713
:100FC000B8975FE77EF71DC73CD7D326F236910668
:100FD000B01657667676154634564CD96DC90EF95B
:100FE0002FE9C899E9898AB9ABA9445865480678B8
:100FF0002768C018E1088238A3287DCB5CDB3FEB73
:101000001EFBF98BD89BBBAB9ABB754A545A376A07
:10101000167AF10AD01AB32A923A2EFD0FED6CDD42
:101020004DCDAABD8BADE89DC98D267C076C645C57
:10103000454CA23C832CE01CC10C1FEF3EFF5DCF52
:101040007CDF9BAFBABFD98FF89F176E367E554EA7
:10105000745E932EB23ED10EF01ED9CFE5FFE1CFE4
:10106000D9FF00C0E5FF01C0E5FF02C0E5FF03C0F6
:10107000E5FF04C0E5FF05C0E5FF06C0E5FF07C0CA
:10108000E5FF08C0E5FF09C0E5FF0AC0E5FF0BC0AA
:10109000E5FF0CC0E5FF020EDBCF00F0030EDBCF57
:1010A00001F0040EDBCF02F0050EDBCF03F0060EDD
:1010B000DBCF04F0070EDBCF05F0300E0F01206F01
:1010C000310E0F01216F320E0F01226F330E0F010F
:1010D000236F340E0F01246F350E0F01256F360E6E
:1010E0000F01266F370E0F01276F380E0F01286F83
:1010F000390E0F01296F610E0F012A6F620E0F0169
:101100002B6F630E0F012C6F640E0F012D6F650E98
:101110000F012E6F660E0F012F6F0F01306B00C095
:10112000E9FF01C0F3FF0250B3EC16F0066E065063
:10113000D8B460D00F0E086E200E076E800E096EB8
:101140000650E56E0950E56E0850E56E0750E56EF5
:10115000A7EC11F0066EF3CF07F0F4CF08F0040E01
:10116000E126200E065E0F0E075A0650100DF3CF33
:1011700006F00F0E086E200E076E800E096E0050EE
:10118000010F0A6E000E01200B6E000E02200C6E85
:101190000AC0E9FF0BC0F3FF0C50B3EC16F00A6E67
:1011A0000A50E56E0950E56E0850E56E0750E56E91
:1011B000A7EC11F0076EF3CF08F0F4CF09F0040E9E
:1011C000E126200E075E0F0E085A0750062606C0BD
:1011D000E5FF03C0E9FF04C0F3FF0550E1EC16F0A2
:1011E000020E0026000E01220222032A98E3044A7E
:1011F000052A95D7E4CF0CF0E4CF0BF0E4CF0AF04A
:10120000E4CF09F0E4CF08F0E4CF07F0E4CF06F034
:10121000E4CF05F0E4CF04F0E4CF03F0E4CF02F034
:10122000E4CF01F0E4CF00F0E4CFD9FF1200D9CF32
:10123000E5FFE1CFD9FF00C0E5FF01C0E5FF02C037
:10124000E5FF03C0E5FF04C0E5FF05C0E5FF06C0FC
:10125000E5FF07C0E5FF08C0E5FF09C0E5FF0AC0DC
:10126000E5FF0BC0E5FF0CC0E5FF0DC0E5FF0EC0BC
:10127000E5FF0FC0E5FF020EDBCF00F0030EDBCF72
:1012800001F0040EDBCF02F0050EDBCF03F0060EFB
:10129000DBCF04F0070EDBCF05F0080EDBCF06F046
:1012A000200E076E086A06C009F00A6A0B6A0C6A0B
:1012B000E56AE56AE56A0950E56E0350E56E02509D
:1012C000E56E0150E56E0050E56E94EC0CF00D6E8D
:1012D000080EE126300E0D263A0E0D5C05E30D508A
:1012E0000E6E270E0E240D6EFF0E07260822000E2E
:1012F00007240E6E0F0E08200F6E0EC0E9FF0FC000
:10130000EAFF0DC0EFFF0C50E56E0B50E56E0A5082
:10131000E56E0950E56E0350E56E0250E56E015032
:10132000E56E0050E56E31EC0DF0006EF3CF01F08C
:10133000F4CF02F0E9CF03F0080EE12600500110CF
:1013400002100310D8A4AFD707C000F008C001F006
:1013500004C002F005C003F000C004F001C005F0B5
:10136000004A012A000E04260F0E052204C0E9FFE0
:1013700005C0EAFFEFCF04F002C0E9FF03C0EAFFB7
:1013800004C0EFFF024A032A000E015C02E1200EB6
:10139000005CE2E302C0E9FF03C0EAFF000EEF6A6F
:1013A000E4CF0FF0E4CF0EF0E4CF0DF0E4CF0CF07B
:1013B000E4CF0BF0E4CF0AF0E4CF09F0E4CF08F07B
:1013C000E4CF07F0E4CF06F0E4CF05F0E4CF04F07B
:1013D000E4CF03F0E4CF02F0E4CF01F0E4CF00F07B
:1013E000E4CFD9FF1200D8CFE5FFE0CFE5FFE56EEF
:1013F000F3CFE5FFF4CFE5FFE9CFE5FFEACFE5FF67
:10140000FACFE5FFFBCFE5FFD9CFE5FFE1CFD9FF6D
:1014100000C0E5FF01C0E5FFF2A457D0FD0ED76E76
:10142000D66AF2948FEC16F00801126F0801076B70
:101430000801086B610E08010725006E0F0E0801F8
:101440000821016E00C0E9FF01C0EAFFEFCF00F004
:1014500000500801135D15E2010E006E016A0801DB
:10146000075106E0E86CD89000360136010FFCE326
:10147000FF0EE56E0050E56EDAEC12F0E652E65231
:1014800014D0010E006E016A0801075106E0E86CF5
:10149000D89000360136010FFCE3000EE56E0050D7
:1014A000E56EDAEC12F0E652E6520801073F02D090
:1014B0000801082B000E0801085D03E1060E080173
:1014C000075DD8A0B7D70801132BE4CF01F0E4CF14
:1014D00000F0E4CFD9FFE4CFFBFFE4CFFAFFE4CF85
:1014E000EAFFE4CFE9FFE4CFF4FFE4CFF3FFE450F9
:1014F000E4CFE0FFE4CFD8FF10004F70656E537467
:101500006F6B6572207374617274696E672E2E2E14
:101510002073657269616C20776F726B696E670A00
:101520000D000A0D000067253032780A0D00616455
:1015300025643A20253034780A0D0000D9CFE5FF24
:10154000E1CFD9FF00C0E5FF01C0E5FF02C0E5FF24
:1015500003C0E5FF04C0E5FF05C0E5FF06C0E5FFE9
:1015600007C0E5FF08C0E5FF020EDBCF00F0030E69
:10157000DBCF01F0040EDBCF02F0050EDBCF03F072
:10158000060EDBCF04F0070EDBCF05F00F0E076E63
:10159000580E066E800E086E0850E56E0750E56E18
:1015A0000650E56E0250E56E0150E56E0050E56EA6
:1015B0002DEC08F0060EE1265FCF00F0016A005026
:1015C000066E026A60CF00F0016A005002260150E8
:1015D00006220F0E016E580E006E800E076E000E72
:1015E000E56E000EE56E000EE56E000EE56E000E77
:1015F000E56E070EE56E0750E56E0150E56E005092
:10160000E56EEFEC0BF0006EF3CF01F0090EE12672
:101610000250001803E10650011801E022D00550E5
:10162000056E0450046E0350036E0F0E016E580ECB
:10163000006E800E026E000EE56E070EE56E025023
:10164000E56E0150E56E0050E56E0550E56E045004
:10165000E56E0350E56ED0EC0EF0080EE126010EAB
:1016600001D0E86AE4CF08F0E4CF07F0E4CF06F059
:10167000E4CF05F0E4CF04F0E4CF03F0E4CF02F0D0
:10168000E4CF01F0E4CF00F0E4CFD9FF1200D9CFCE
:10169000E5FFE1CFD9FF00C0E5FF01C0E5FF02C0D3
:1016A000E5FF03C0E5FF04C0E5FF05C0E5FF06C098
:1016B000E5FF07C0E5FF08C0E5FF09C0E5FF0AC078
:1016C000E5FF0BC0E5FF0CC0E5FF0DC0E5FF0EC058
:1016D000E5FF0FC0E5FF020EDBCF00F0030EDBCF0E
:1016E00001F0040EDBCF02F0050EDBCF03F067CF75
:1016F00004F068CF05F069CF06F06ACF07F0045018
:101700000F01675D086E05500F016859096E06509C
:101710000F0169590A6E07500F016A590B6E085084
:101720000C6E09500D6E0A500E6E0B500F6ED88065
:101730000FAED8901CE30B50E56E0A50E56E0950D1
:10174000E56E0850E56EFF0EE56EFF0EE56EFF0ECE
:10175000E56EFF0EE56E23EC06F00C6EF3CF0DF098
:10176000F4CF0EF0E9CF0FF0080EE12608D008C044
:101770000CF009C00DF00AC00EF00BC00FF00350C2
:101780000F5C08E102500E5C05E101500D5C02E1C6
:1017900000500C5CD8A0B3D7E4CF0FF0E4CF0EF02C
:1017A000E4CF0DF0E4CF0CF0E4CF0BF0E4CF0AF07F
:1017B000E4CF09F0E4CF08F0E4CF07F0E4CF06F07F
:1017C000E4CF05F0E4CF04F0E4CF03F0E4CF02F07F
:1017D000E4CF01F0E4CF00F0E4CFD9FF1200D9CF7D
:1017E000E5FFE1CFD9FF00C0E5FF01C0E5FF02C082
:1017F000E5FF03C0E5FF04C0E5FF05C0E5FF06C047
:10180000E5FF07C0E5FF08C0E5FF09C0E5FF0AC026
:10181000E5FF0BC0E5FF0CC0E5FF020EDBCF00F0DB
:10182000030EDBCF01F0040EDBCF02F0050EDBCFA1
:1018300003F0060EDBCF04F0070EDBCF05F0080E39
:10184000DBCF06F0090EDBCF07F00A0EDBCF08F086
:1018500003C009F004C00AF005C00BF006C00CF08C
:10186000FF0E032604220522062209500A100B103F
:101870000C103AE00850096E00C0E9FF01C0F3FF08
:101880000250B3EC16F00B6E002A02E3014A022A62
:101890000B50091AE56A0950E56EE56A020EE56E1D
:1018A000BBEC10F0096EF3CF0AF0040EE1260B6AD0
:1018B0005A0E09260E0E0A22000E0B2209C0F6FF50
:1018C0000AC0F7FF0BC0F8FF0900F5CF09F00900C7
:1018D000F5CF0AF007500C6E0B6A0B500918076E13
:1018E0000C500A18086EB4D708C0F3FF0750E4CFB5
:1018F0000CF0E4CF0BF0E4CF0AF0E4CF09F0E4CF32
:1019000008F0E4CF07F0E4CF06F0E4CF05F0E4CF31
:1019100004F0E4CF03F0E4CF02F0E4CF01F0E4CF31
:1019200000F0E4CFD9FF1200D9CFE5FFE1CFD9FF16
:1019300000C0E5FF01C0E5FF02C0E5FF03C0E5FF11
:1019400004C0E5FF05C0E5FF06C0E5FF07C0E5FFF1
:1019500008C0E5FF09C0E5FF0AC0E5FF020EDBCFC6
:1019600000F0030EDBCF01F0040EDBCF02F0050E1A
:10197000DBCF03F0060EDBCF04F0070EDBCF05F064
:10198000080EDBCF06F0090EDBCF07F0086A045023
:1019900005100610071005E1E968F468F368E868C7
:1019A00047D0096A0750800BE8440A6E0A501BE1D1
:1019B000045004260536063607360750035C08E156
:1019C0000650025C05E10550015C02E10450005C38
:1019D00006E2D890073206320532043204D0092AD2
:1019E00009C008F0DFD70750035C08E10650025C2D
:1019F00005E10550015C02E10450005C08E304507D
:101A0000005E0550015A0650025A0750035AD890FA
:101A1000073206320532043208C009F008060950C0
:101A2000E2E103C0E9FF02C0F4FF01C0F3FF005090
:101A3000E4CF0AF0E4CF09F0E4CF08F0E4CF07F0F8
:101A4000E4CF06F0E4CF05F0E4CF04F0E4CF03F0F8
:101A5000E4CF02F0E4CF01F0E4CF00F0E4CFD9FF0F
:101A60001200D9CFE5FFE1CFD9FF00C0E5FF01C0EB
:101A7000E5FF02C0E5FF03C0E5FF04C0E5FF05C0C8
:101A8000E5FF06C0E5FF07C0E5FF08C0E5FF09C0A8
:101A9000E5FF0AC0E5FF0BC0E5FF0CC0E5FF0DC088
:101AA000E5FF020EDBCF00F0030EDBCF01F0040EEA
:101AB000DBCF02F0050EDBCF03F0060EDBCF04F028
:101AC000070EDBCF05F0080EDBCF06F0090EDBCFEB
:101AD00007F0086A096A0A6A0B6A200E0C6E035046
:101AE000800BE8440D6E00500026013602360336A6
:101AF0000850082609360A360B360D50D8A408803F
:101B000007500B5C08E106500A5C05E10550095CD2
:101B100002E10450085C09E30450085E0550095ACC
:101B200006500A5A07500B5A00800C2ED8D703C013
:101B3000E9FF02C0F4FF01C0F3FF0050E4CF0DF055
:101B4000E4CF0CF0E4CF0BF0E4CF0AF0E4CF09F0DF
:101B5000E4CF08F0E4CF07F0E4CF06F0E4CF05F0DF
:101B6000E4CF04F0E4CF03F0E4CF02F0E4CF01F0DF
:101B7000E4CF00F0E4CFD9FF1200D9CFE5FFE1CFE9
:101B8000D9FF00C0E5FF01C0E5FF02C0E5FF03C0CB
:101B9000E5FF04C0E5FF05C0E5FF050ED924006E92
:101BA000000EDA20016E800E026E030E0026000E7B
:101BB0000122022206C0E5FF07C0E5FF08C0E5FFDD
:101BC000020EDBCF06F0030EDBCF07F0040EDBCFF7
:101BD00008F00850056E0750046E0650036EE4CFFF
:101BE00008F0E4CF07F0E4CF06F00250E56E0150B4
:101BF000E56E0050E56E070EDBCFE5FF060EDBCF8E
:101C0000E5FF050EDBCFE5FF0550E56E0450E56E00
:101C10000350E56E0EEC00F0006EF3CF01F0090EFC
:101C2000E12606C0E5FF07C0E5FF08C0E5FF020E9C
:101C3000DBCF06F0030EDBCF07F0040EDBCF08F09E
:101C400000500624026E01500720036EE86A082047
:101C5000E4CF08F0E4CF07F0E4CF06F0E56A02C075
:101C6000E9FF03C0F3FFE1EC16F001C0F3FF005001
:101C7000E4CF05F0E4CF04F0E4CF03F0E4CF02F0CA
:101C8000E4CF01F0E4CF00F0E4CFD9FF1200D9CFC8
:101C9000E5FFE1CFD9FF00C0E5FF01C0E5FF02C0CD
:101CA000E5FF03C0E5FF04C0E5FF05C0E5FF06C092
:101CB000E5FF07C0E5FF020EDBCF00F0030EDBCF30
:101CC00001F0040EDBCF02F0050EDBCF03F002C003
:101CD00006F00650046E800A33E100C0E9FF01C03F
:101CE000F3FF025085EC15F0056EF3CF06F0F4CF4C
:101CF00007F003C0E5FF05C0E9FF06C0F3FF07508A
:101D0000E1EC16F000C0E9FF01C0F3FF025085ECE2
:101D100015F0056EF3CF06F0F4CF07F0052A02E3C5
:101D2000064A072A05C0E5FF06C0F4FF07C0F6FF14
:101D300000C0E9FF01C0F3FF0250C4EC16F01DD053
:101D400004AA1BD0047A045004E1035006EC00F00E
:101D500014D00450010A04E1035002EC00F00DD04D
:101D600004500F0A04E103503FEC17F006D0045072
:101D70000E0A03E1035030EC17F0E4CF07F0E4CF94
:101D800006F0E4CF05F0E4CF04F0E4CF03F0E4CFB5
:101D900002F0E4CF01F0E4CF00F0E4CFD9FF12006D
:101DA000D9CFE5FFE1CFD9FF00C0E5FF01C0E5FFD6
:101DB00002C0E5FF03C0E5FF04C0E5FF05C0E5FF85
:101DC00006C0E5FF07C0E5FF08C0E5FF09C0E5FF65
:101DD0000AC0E5FF0BC0E5FF0CC0E5FF020EDBCF3C
:101DE00000F0030EDBCF01F0040EDBCF02F0050E96
:101DF000DBCF03F0060EDBCF04F0070EDBCF05F0E0
:101E0000080EDBCF06F0090EDBCF07F002500A6E9A
:101E10000150096E0050086E06C00BF007C00CF0B0
:101E2000FF0E062607220B500C101AE003C0E9FF34
:101E300004C0F3FF0550B3EC16F00B6E032A02E367
:101E4000044A052A0BC0E5FF08C0E9FF09C0F3FFFB
:101E50000A50E1EC16F0082ADFE3094A0A2ADCD727
:101E600002C0F4FF01C0F3FF0050E4CF0CF0E4CF58
:101E70000BF0E4CF0AF0E4CF09F0E4CF08F0E4CFB0
:101E800007F0E4CF06F0E4CF05F0E4CF04F0E4CFB0
:101E900003F0E4CF02F0E4CF01F0E4CF00F0E4CFB0
:101EA000D9FF1200D9CFE5FFE1CFD9FF00C0E5FF90
:101EB00001C0E5FF02C0E5FF03C0E5FF04C0E5FF88
:101EC00005C0E5FF06C0E5FF020EDBCF00F0030E04
:101ED000DBCF01F0040EDBCF02F0050EDBCF03F009
:101EE000060EDBCF04F0070EDBCF05F0080EDBCFCC
:101EF00006F0D88003AED89015E306500A0A12E126
:101F000004C0E9FF05C0EAFF2D0EEF6E044A052A62
:101F1000031E021E011E006C05E1012A03E1022AD4
:101F2000D8B4032A0650E56E0550E56E0450E56E00
:101F30000350E56E0250E56E0150E56E0050E56E0F
:101F400017EC09F0070EE126E4CF06F0E4CF05F028
:101F5000E4CF04F0E4CF03F0E4CF02F0E4CF01F0EB
:101F6000E4CF00F0E4CFD9FF1200D9CFE5FFE1CFF5
:101F7000D9FF00C0E5FF01C0E5FF02C0E5FF03C0D7
:101F8000E5FF04C0E5FF05C0E5FF06C0E5FF020E62
:101F9000DBCF00F0030EDBCF01F0040EDBCF02F04D
:101FA000050EDBCF03F0046A056A0350800BE8449A
:101FB000066E065011E10250022603360350015C02
:101FC00002E10250005C04E2D8900332023204D0F5
:101FD000052A05C004F0E9D70350015C02E1025074
:101FE000005C04E30250005E0350015AD8900332B3
:101FF000023204C005F004060550EEE101C0F3FF13
:102000000050E4CF06F0E4CF05F0E4CF04F0E4CFD5
:1020100003F0E4CF02F0E4CF01F0E4CF00F0E4CF2E
:10202000D9FF1200D9CFE5FFE1CFD9FF00C0E5FF0E
:1020300001C0E5FF02C0E5FF03C0E5FF04C0E5FF06
:10204000020EDBCF00F0030EDBCF01F0040EDBCF7E
:1020500002F0BAEC15F0036E03502DE005C803F052
:1020600006C804F00801053F02D00801062B000E47
:10207000E56E640EE56E0450E56E0350E56EB5EC5A
:102080000FF0036EF3CF04F0040EE126800E03265A
:10209000000E042203C0E9FF04C0EAFFEFCF03F003
:1020A00003C0E5FF00C0E9FF01C0F3FF0250E1EC0F
:1020B00016F0010E01D0E86AE4CF04F0E4CF03F09B
:1020C000E4CF02F0E4CF01F0E4CF00F0E4CFD9FF99
:1020D0001200D9CFE5FFE1CFD9FF00C0E5FF01C075
:1020E000E5FF02C0E5FF020EDBCF00F0030EDBCF01
:1020F00001F000AC06D0020EE56E57EC13F0E6528C
:1021000005D0010EE56E57EC13F0E6520138E844B5
:102110001F0B026E0250E56EA3EC13F0E6523F0E69
:1021200000160050E56E7FEC13F0E652ECEC16F072
:10213000ECEC16F0026E0050E56E7FEC13F0E65208
:10214000070E0116010E006E015005E0E86CD890F4
:102150000036010FFDE3005002120250E56EC6EC9E
:1021600013F0E652E4CF02F0E4CF01F0E4CF00F048
:10217000E4CFD9FF1200D9CFE5FFE1CFD9FF00C0EE
:10218000E5FF01C0E5FF02C0E5FF03C0E5FF020E69
:10219000DBCF00F0030EDBCF01F0040EDBCF02F04B
:1021A000050EDBCF03F000500801096F01500A6FE4
:1021B000025008010B6F03500C6F08010951080110
:1021C0000B03F4CF01F0F3CF00F0005008010D6FC6
:1021D00001500E6F0801095108010C03F3CF00F004
:1021E00008010A5108010B03F3CF01F0015000264A
:1021F00008010E51002600500E6F0EC8F3FF0D515E
:10220000E4CF03F0E4CF02F0E4CF01F0E4CF00F03C
:10221000E4CFD9FF1200D8CFE5FFE0CFE5FFE56EB0
:10222000F3CFE5FFF4CFE5FFE9CFE5FFEACFE5FF28
:10223000FACFE5FFFBCFE5FFD9CFE5FFE1CFD9FF2F
:1022400000C0E5FF9EA010D0FE0ECF6EC80ECE6E71
:102250009E900F01672B08E30F01682B05E30F0128
:10226000693F02D00F016A2B28EC17F0006E005076
:102270000BE068EC16F0006E0050E56EF2EC11F029
:10228000E652005011EC17F0E4CF00F0E4CFD9FF94
:10229000E4CFFBFFE4CFFAFFE4CFEAFFE4CFE9FFAE
:1022A000E4CFF4FFE4CFF3FFE450E4CFE0FFE4CF6A
:1022B000D8FF1000D9CFE5FFE1CFD9FF00C0E5FF7F
:1022C00001C0E5FF02C0E5FF030EE56E57EC13F019
:1022D000E652006A0050E56EA3EC13F0E652000EE1
:1022E000E56E7FEC13F0E652000EE56E40EC16F062
:1022F000E652000EE56EA0EC14F0E652010EE56E1B
:10230000BDEC14F0E652400E016EE7EC13F0000055
:10231000000000000000000000000000000001506C
:10232000026E0204016E0150F0E1002A080E005C0A
:10233000D1E3010EE56E57EC13F0E652E4CF02F064
:10234000E4CF01F0E4CF00F0E4CFD9FF1200D9CF01
:10235000E5FFE1CFD9FF00C0E5FF01C0E5FF02C006
:10236000E5FF03C0E5FF04C0E5FF020EDBCF00F090
:10237000030EDBCF01F0040EDBCF02F0050EDBCF46
:1023800003F000C0E9FF01C0F3FF0250B3EC16F008
:10239000046E045008E00450031805E0002A02E32C
:1023A000014A022AEED700C0E9FF01C0F3FF025044
:1023B000B3EC16F0031806E102C0F4FF01C0F3FF0E
:1023C000005003D0F46AF36AE86AE4CF04F0E4CF83
:1023D00003F0E4CF02F0E4CF01F0E4CF00F0E4CF6B
:1023E000D9FF1200D9CFE5FFE1CFD9FF00C0E5FF4B
:1023F00001C0E5FF02C0E5FF020EDBCF00F0BAEC42
:1024000015F0016E0150640A24E003C801F004C80D
:1024100002F00801033F02D00801042B000EE56E14
:10242000640EE56E0250E56E0150E56EB5EC0FF0FE
:10243000016EF3CF02F0040EE126800E0126000E9D
:10244000022201C0E9FF02C0EAFF00C0EFFF010E57
:1024500001D0E86AE4CF02F0E4CF01F0E4CF00F06D
:10246000E4CFD9FF1200D9CFE5FFE1CFD9FF00C0FB
:10247000E5FF01C0E5FF02C0E5FF03C0E5FF020E76
:10248000DBCF00F0030EDBCF01F0040EDBCF02F058
:10249000050EDBCF03F0C26A0F0E00160044E844BD
:1024A000FC0BC26E3F0E0216300E03140210C16EFA
:1024B000800E0314006E3F0E011601500010C06E16
:1024C00003AC03D09E9C9D8CF28CC280E4CF03F0C1
:1024D000E4CF02F0E4CF01F0E4CF00F0E4CFD9FF85
:1024E0001200D9CFE5FFE1CFD9FF00C0E5FF01C061
:1024F000E5FF02C0E5FF03C0E5FF020EDBCF00F001
:10250000030EDBCF01F0040EDBCF02F024EC17F05A
:10251000036E0350FBE100C0E9FF01C0F3FF02506E
:10252000B3EC16F011EC17F000C0E9FF01C0F3FFA7
:102530000250B3EC16F0036E002A02E3014A022AAD
:102540000350E4E1E4CF03F0E4CF02F0E4CF01F084
:10255000E4CF00F0E4CFD9FF1200D9CFE5FFE1CFFF
:10256000D9FF00C0E5FF020EDBCF00F0010EE56EE3
:1025700049EC14F0E652010EE56E66EC14F0E652FA
:10258000000EE56EA0EC14F0E652000EE56EBDEC18
:1025900014F0E652010E00163E0E00120050E56ED9
:1025A00040EC16F0E652E7EC13F0E4CF00F0E4CF95
:1025B000D9FF1200D9CFE5FFE1CFD9FF00C0E5FF79
:1025C00001C0E5FF020EDBCF00F0030EDBCF01F010
:1025D0001E0E001600500116956A015006E00050CC
:1025E0000801141314C88CFF06D0001E0050080107
:1025F000141714C88CFF898E899E8C6AE4CF01F071
:10260000E4CF00F0E4CFD9FF1200D9CFE5FFE1CF4E
:10261000D9FF000EE56EF7EC14F0E652000EE56E01
:10262000000EE56E000EE56EC80EE56E47EC0BF091
:10263000040EE126010EE56EF7EC14F0E652000EF2
:10264000E56E000EE56E000EE56EC80EE56E47EC19
:102650000BF0040EE126E4CFD9FF1200D9CFE5FF3D
:10266000E1CFD9FF000EE56E000EE56E000EE56EBF
:10267000010EE56E47EC0BF0040EE126000EE56E50
:1026800083EC14F0E652000EE56E000EE56E000ECF
:10269000E56E010EE56E47EC0BF0040EE126010E2F
:1026A000E56E83EC14F0E652E4CFD9FF1200D9CFE7
:1026B000E5FFE1CFD9FF00C0E5FF020EDBCF00F060
:1026C00000A006D0010EE56E49EC14F0E65205D0EC
:1026D000000EE56E49EC14F0E65200A206D0010EA1
:1026E000E56E66EC14F0E65205D0000EE56E66EC81
:1026F00014F0E652E4CF00F0E4CFD9FF1200D9CFB6
:10270000E5FFE1CFD9FF00C0E5FF020EDBCF00F00F
:102710006AEC15F0000EE56EBDEC14F0E652000E0A
:10272000E56EA0EC14F0E6523F0E0016008C00504F
:10273000E56E40EC16F0E652E7EC13F0E4CF00F063
:10274000E4CFD9FF1200D9CFE5FFE1CFD9FF00C018
:10275000E5FF020EDBCF00F06AEC15F0000EE56E2F
:10276000BDEC14F0E652000EE56EA0EC14F0E6525B
:10277000B80E00120050E56E40EC16F0E652E7ECA1
:1027800013F0E4CF00F0E4CFD9FF1200D9CFE5FF7A
:10279000E1CFD9FF00C0E5FF020EDBCF00F06AEC0D
:1027A00015F0010EE56EBDEC14F0E652000EE56E7C
:1027B000A0EC14F0E6520050E56E40EC16F0E65244
:1027C000E7EC13F0E4CF00F0E4CFD9FF1200D9CF4B
:1027D000E5FFE1CFD9FF010EE56EDAEC14F0E65229
:1027E00000000000000000000000000000000000E9
:1027F000000EE56EDAEC14F0E65200000000000076
:1028000000000000000000000000E4CFD9FF12002B
:10281000D9CFE5FFE1CFD9FF010EE56EF7EC14F05B
:10282000E6520801166B000EE56E49EC14F0E65214
:10283000000EE56E66EC14F0E6522EEC13F0010E7D
:10284000E56EADEC12F0E6525AEC11F0E4CFD9FF90
:102850001200E8AE0AD0F3CFEAFFEE50EECFF3FF5E
:10286000EECFF4FFEECFE9FF1200E8BC3BEF17F02C
:10287000E9CFF6FFF3CFF7FFF86E0900F550090036
:10288000F5CFF3FF0900F5CFF4FF0900F5CFE9FF1D
:102890001200D9CFE5FFE1CFD9FF00C0E5FF020E5E
:1028A000DBCF00F0956A005005E00801168B16C8D2
:1028B0008CFF04D00801169B16C88CFF898C899C5C
:1028C0008C6AE4CF00F0E4CFD9FF1200D9CFE5FF46
:1028D000E1CFD9FF00C0E5FF020EDBCF00F0956A23
:1028E000005005E00801168916C88CFF04D00801C5
:1028F000169916C88CFF898C899C8C6AE4CF00F0ED
:10290000E4CFD9FF1200D9CFE5FFE1CFD9FF00C056
:10291000E5FF020EDBCF00F0956A005005E00801EC
:10292000168716C88CFF04D00801169716C88CFFAE
:10293000898C899C8C6AE4CF00F0E4CFD9FF120027
:10294000D9CFE5FFE1CFD9FF00C0E5FF020EDBCF15
:1029500000F0956A005005E00801168516C88CFF46
:1029600004D00801169516C88CFF898C899C8C6A46
:10297000E4CF00F0E4CFD9FF1200D9CFE5FFE1CFDB
:10298000D9FF00C0E5FF020EDBCF00F0956A0050D2
:1029900005E00801168316C88CFF04D008011693C1
:1029A00016C88CFF898C899C8C6AE4CF00F0E4CF38
:1029B000D9FF1200D9CFE5FFE1CFD9FF00C0E5FF75
:1029C000020EDBCF00F0956A005005E00801168189
:1029D00016C88CFF04D00801169116C88CFF898C8C
:1029E000899C8C6AE4CF00F0E4CFD9FF1200D9CFE4
:1029F000E5FFE1CFD9FF00C0E5FF020EDBCF00F01D
:102A0000956A005005E00801168F16C88CFF04D0A7
:102A10000801169F16C88CFF898C899C8C6AE4CFAC
:102A200000F0E4CFD9FF1200D9CFE5FFE1CFD9FF05
:102A300000C0E5FF01C0E5FF020EDBCF00F0C25091
:102A4000016EC30E01160F0E00160044E844FC0B85
:102A50000110C26EE4CF01F0E4CF00F0E4CFD9FF63
:102A60001200F2CFF6FFF29EA69EA69CE9CFA9FF28
:102A7000F3CFAAFFA680A850A94AAA2AA680A8CF69
:102A8000F3FFA94AAA2AA680A8CFF4FFA94AAA2A36
:102A9000A680A8CFEAFFF6BEF28E1200D9CFE5FFDE
:102AA000E1CFD9FFD58ED590D592D594D59CD59A26
:102AB000D596F184F28AF284CD80CD8ECD92CD96DA
:102AC000CD88CD8A9F909D809E80F28CF28EE4CF3F
:102AD000D9FF1200D9CFE5FFE1CFD9FF00000000F8
:102AE000000000000000000000000000000EE56E85
:102AF000000EE56E000EE56E0A0EE56E47EC0BF07B
:102B0000040EE126E4CFD9FF1200E8AE08D0F3CFDF
:102B1000EAFFEE50EECFF3FFEECFF4FF1200E8BC79
:102B200039EF17F0E9CFF6FFF3CFF7FFF86E0900A2
:102B3000F5500900F5CFF3FF0900F5CFF4FF1200BF
:102B4000F2CFEAFFF29EA69EA69CA684E9CFA9FF3B
:102B5000F3CFAAFFE4CFA8FF00EC17F0F4CFA8FF53
:102B600000EC17F0F6CFA8FF00EC17F0A694EABE31
:102B7000F28E1200D9CFE5FFE1CFD9FF00C0E5FF0B
:102B800001C0E5FF08010351006E08010551016E07
:102B90000150005E0050E4CF01F0E4CF00F0E4CF3C
:102BA000D9FF1200F2CFF6FFF29EA69EA69CE9CFB7
:102BB000A9FFF3CFAAFFA680A850A94AAA2AA680F7
:102BC000A8CFF3FFA94AAA2AA680A8CFF4FFF6BE91
:102BD000F28E1200D9CFE5FFE1CFD9FF00C0E5FFAB
:102BE000020EDBCF00F0610E005C05E37B0E005CA3
:102BF00002E2010E01D0E86AE4CF00F0E4CFD9FF91
:102C00001200E8AE06D0F3CFEAFFEE50EECFF3FFAE
:102C10001200E8BC37EF17F0E9CFF6FFF3CFF7FF6C
:102C2000F86E0900F5500900F5CFF3FF1200D9CF77
:102C3000E5FFE1CFD9FF670EAF6EAC84AC98B886E4
:102C4000AB8E9D989F989D8A9F9AAC9CAB9CAB88BD
:102C5000AC8AE4CFD9FF1200D9CFE5FFE1CFD9FF8D
:102C6000956A92988988929E899E0801146B929C1D
:102C7000899C94948B94949A8B9AE4CFD9FF1200F8
:102C8000D9CFE5FFE1CFD9FF00C0E5FF020EDBCFD2
:102C900000F0956A00C08CFF8B848B948C6AE4CF23
:102CA00000F0E4CFD9FF1200D9CFE5FFE1CFD9FF83
:102CB000000EE56E000EE56E000EE56E0A0EE56E86
:102CC00047EC0BF0040EE126010EE4CFD9FF120011
:102CD000F00E08011715176FABAC04D01791ABA01D
:102CE00001D01781ABA402D008011785ABA202D096
:102CF00008011787AE501200F2CFF6FFF29EA69E93
:102D0000A69CE9CFA9FFF3CFAAFFA680A850A94AA5
:102D1000AA2AA680A8CFF3FFF6BEF28E1200D9CF62
:102D2000E5FFE1CFD9FF00C0E5FFFF0E956E899862
:102D300083CF00F089880050E4CF00F0E4CFD9FFC2
:102D40001200F2CFEAFFF29EA69EA69CA684E9CFCF
:102D5000A9FFF3CFAAFFE4CFA8FF00EC17F0A694D9
:102D6000EABEF28E1200E8AE04D0F3CFEAFFEE50D6
:102D70001200E8BC35EF17F0E9CFF6FFF3CFF7FF0D
:102D8000F86E0900F5501200E8AE09D0F3CFEAFF63
:102D9000E4CFEEFFF4CFEEFFF6CFEEFF1200E8BC7B
:102DA0003DEF17F01200F2CFF6FFF29EA69EA69C12
:102DB000E9CFA9FFF3CFAAFFA680A850F6BEF28EF6
:102DC0001200E8AE05D0F3CFEAFFE4CFEEFF120029
:102DD000E8BC33EF17F01200D9CFE5FFE1CFD9FF00
:102DE000E7EC13F0E86AE4CFD9FF120017EEFFF02A
:102DF00027EEFFF0F86AA68EA69C14EC04F0FFD72D
:102E0000550EA76EAA0EA76EA682A6B2FED7A94A35
:102E1000AA2AD9CFE5FFE1CFD9FFFF00E4CFD9FF40
:102E20001200ACAC04D0AC90080117B3AC80AD6E0E
:102E30001200D9CFE5FFE1CFD9FFE4CFD9FF1200CF
:102E4000C4CFF3FFC3501200000EACA2010F12005A
:102E5000000E9EBA010F1200000EC2B2010F120046
:102E6000E8CF7FFF1200A1EF16F0D3EF16F07CEF52
:102E700016F0D2EF15F031EF15F0A0EF15F01200BB
:020000040030CA
:0300010008191AC1
:020005008180F8
:00000001FF
