:020000040000FA
:1000000035EF00F0D350FC0BD36ED3508F0B70093B
:10001000D36E946AFF0E826E100E0001806F270E61
:100020000001816FFF0E0001802700018123000184
:10003000805100018111F6E1826A100E0001806F8B
:10004000270E0001816FFF0E000180270001812330
:100050000001805100018111F6E1100E0001806F56
:10006000270E0001816FD6D7120017EEFFF027EEA2
:0E007000FFF0F86AA68EA69C02EC00F0FFD707
:020000040030CA
:0300010008191EBD
:020005008180F8
:00000001FF
